{
  "contractName": "MasterChef",
  "abi": [
    {
      "inputs": [
        {
          "internalType": "contract Token",
          "name": "_merge",
          "type": "address"
        },
        {
          "internalType": "address",
          "name": "_devaddr",
          "type": "address"
        },
        {
          "internalType": "uint256",
          "name": "_startBlock",
          "type": "uint256"
        }
      ],
      "stateMutability": "nonpayable",
      "type": "constructor"
    },
    {
      "anonymous": false,
      "inputs": [
        {
          "indexed": true,
          "internalType": "address",
          "name": "user",
          "type": "address"
        },
        {
          "indexed": true,
          "internalType": "uint256",
          "name": "pid",
          "type": "uint256"
        },
        {
          "indexed": false,
          "internalType": "uint256",
          "name": "amount",
          "type": "uint256"
        }
      ],
      "name": "Deposit",
      "type": "event"
    },
    {
      "anonymous": false,
      "inputs": [
        {
          "indexed": true,
          "internalType": "address",
          "name": "user",
          "type": "address"
        },
        {
          "indexed": true,
          "internalType": "uint256",
          "name": "pid",
          "type": "uint256"
        },
        {
          "indexed": false,
          "internalType": "uint256",
          "name": "amount",
          "type": "uint256"
        }
      ],
      "name": "EmergencyWithdraw",
      "type": "event"
    },
    {
      "anonymous": false,
      "inputs": [
        {
          "indexed": true,
          "internalType": "address",
          "name": "previousOwner",
          "type": "address"
        },
        {
          "indexed": true,
          "internalType": "address",
          "name": "newOwner",
          "type": "address"
        }
      ],
      "name": "OwnershipTransferred",
      "type": "event"
    },
    {
      "anonymous": false,
      "inputs": [
        {
          "indexed": true,
          "internalType": "address",
          "name": "user",
          "type": "address"
        },
        {
          "indexed": true,
          "internalType": "uint256",
          "name": "mergePerBlock",
          "type": "uint256"
        }
      ],
      "name": "Reward",
      "type": "event"
    },
    {
      "anonymous": false,
      "inputs": [
        {
          "indexed": true,
          "internalType": "address",
          "name": "user",
          "type": "address"
        },
        {
          "indexed": true,
          "internalType": "uint256",
          "name": "pid",
          "type": "uint256"
        },
        {
          "indexed": false,
          "internalType": "uint256",
          "name": "amount",
          "type": "uint256"
        }
      ],
      "name": "Withdraw",
      "type": "event"
    },
    {
      "inputs": [],
      "name": "devaddr",
      "outputs": [
        {
          "internalType": "address",
          "name": "",
          "type": "address"
        }
      ],
      "stateMutability": "view",
      "type": "function",
      "constant": true
    },
    {
      "inputs": [],
      "name": "merge",
      "outputs": [
        {
          "internalType": "contract Token",
          "name": "",
          "type": "address"
        }
      ],
      "stateMutability": "view",
      "type": "function",
      "constant": true
    },
    {
      "inputs": [],
      "name": "mergePerBlock",
      "outputs": [
        {
          "internalType": "uint256",
          "name": "",
          "type": "uint256"
        }
      ],
      "stateMutability": "view",
      "type": "function",
      "constant": true
    },
    {
      "inputs": [],
      "name": "migrator",
      "outputs": [
        {
          "internalType": "contract IMigratorChef",
          "name": "",
          "type": "address"
        }
      ],
      "stateMutability": "view",
      "type": "function",
      "constant": true
    },
    {
      "inputs": [],
      "name": "owner",
      "outputs": [
        {
          "internalType": "address",
          "name": "",
          "type": "address"
        }
      ],
      "stateMutability": "view",
      "type": "function",
      "constant": true
    },
    {
      "inputs": [
        {
          "internalType": "uint256",
          "name": "",
          "type": "uint256"
        }
      ],
      "name": "poolInfo",
      "outputs": [
        {
          "internalType": "contract IERC20",
          "name": "lpToken",
          "type": "address"
        },
        {
          "internalType": "uint256",
          "name": "allocPoint",
          "type": "uint256"
        },
        {
          "internalType": "uint256",
          "name": "lastRewardBlock",
          "type": "uint256"
        },
        {
          "internalType": "uint256",
          "name": "accmergePerShare",
          "type": "uint256"
        }
      ],
      "stateMutability": "view",
      "type": "function",
      "constant": true
    },
    {
      "inputs": [],
      "name": "renounceOwnership",
      "outputs": [],
      "stateMutability": "nonpayable",
      "type": "function"
    },
    {
      "inputs": [],
      "name": "startBlock",
      "outputs": [
        {
          "internalType": "uint256",
          "name": "",
          "type": "uint256"
        }
      ],
      "stateMutability": "view",
      "type": "function",
      "constant": true
    },
    {
      "inputs": [],
      "name": "totalAllocPoint",
      "outputs": [
        {
          "internalType": "uint256",
          "name": "",
          "type": "uint256"
        }
      ],
      "stateMutability": "view",
      "type": "function",
      "constant": true
    },
    {
      "inputs": [
        {
          "internalType": "address",
          "name": "newOwner",
          "type": "address"
        }
      ],
      "name": "transferOwnership",
      "outputs": [],
      "stateMutability": "nonpayable",
      "type": "function"
    },
    {
      "inputs": [
        {
          "internalType": "uint256",
          "name": "",
          "type": "uint256"
        },
        {
          "internalType": "address",
          "name": "",
          "type": "address"
        }
      ],
      "name": "userInfo",
      "outputs": [
        {
          "internalType": "uint256",
          "name": "amount",
          "type": "uint256"
        },
        {
          "internalType": "uint256",
          "name": "rewardDebt",
          "type": "uint256"
        }
      ],
      "stateMutability": "view",
      "type": "function",
      "constant": true
    },
    {
      "inputs": [],
      "name": "poolLength",
      "outputs": [
        {
          "internalType": "uint256",
          "name": "",
          "type": "uint256"
        }
      ],
      "stateMutability": "view",
      "type": "function",
      "constant": true
    },
    {
      "inputs": [
        {
          "internalType": "uint256",
          "name": "_allocPoint",
          "type": "uint256"
        },
        {
          "internalType": "contract IERC20",
          "name": "_lpToken",
          "type": "address"
        },
        {
          "internalType": "bool",
          "name": "_withUpdate",
          "type": "bool"
        }
      ],
      "name": "add",
      "outputs": [],
      "stateMutability": "nonpayable",
      "type": "function"
    },
    {
      "inputs": [
        {
          "internalType": "uint256",
          "name": "_pid",
          "type": "uint256"
        },
        {
          "internalType": "uint256",
          "name": "_allocPoint",
          "type": "uint256"
        },
        {
          "internalType": "bool",
          "name": "_withUpdate",
          "type": "bool"
        }
      ],
      "name": "set",
      "outputs": [],
      "stateMutability": "nonpayable",
      "type": "function"
    },
    {
      "inputs": [
        {
          "internalType": "uint256",
          "name": "_mergePerBlock",
          "type": "uint256"
        },
        {
          "internalType": "bool",
          "name": "_withUpdate",
          "type": "bool"
        }
      ],
      "name": "setReward",
      "outputs": [],
      "stateMutability": "nonpayable",
      "type": "function"
    },
    {
      "inputs": [
        {
          "internalType": "contract IMigratorChef",
          "name": "_migrator",
          "type": "address"
        }
      ],
      "name": "setMigrator",
      "outputs": [],
      "stateMutability": "nonpayable",
      "type": "function"
    },
    {
      "inputs": [
        {
          "internalType": "uint256",
          "name": "_pid",
          "type": "uint256"
        }
      ],
      "name": "migrate",
      "outputs": [],
      "stateMutability": "nonpayable",
      "type": "function"
    },
    {
      "inputs": [
        {
          "internalType": "uint256",
          "name": "_pid",
          "type": "uint256"
        },
        {
          "internalType": "address",
          "name": "_user",
          "type": "address"
        }
      ],
      "name": "pendingmerge",
      "outputs": [
        {
          "internalType": "uint256",
          "name": "",
          "type": "uint256"
        }
      ],
      "stateMutability": "view",
      "type": "function",
      "constant": true
    },
    {
      "inputs": [],
      "name": "massUpdatePools",
      "outputs": [],
      "stateMutability": "nonpayable",
      "type": "function"
    },
    {
      "inputs": [
        {
          "internalType": "uint256",
          "name": "_pid",
          "type": "uint256"
        }
      ],
      "name": "updatePool",
      "outputs": [],
      "stateMutability": "nonpayable",
      "type": "function"
    },
    {
      "inputs": [
        {
          "internalType": "uint256",
          "name": "_pid",
          "type": "uint256"
        },
        {
          "internalType": "uint256",
          "name": "_amount",
          "type": "uint256"
        }
      ],
      "name": "deposit",
      "outputs": [],
      "stateMutability": "nonpayable",
      "type": "function"
    },
    {
      "inputs": [
        {
          "internalType": "uint256",
          "name": "_pid",
          "type": "uint256"
        },
        {
          "internalType": "uint256",
          "name": "_amount",
          "type": "uint256"
        }
      ],
      "name": "withdraw",
      "outputs": [],
      "stateMutability": "nonpayable",
      "type": "function"
    },
    {
      "inputs": [
        {
          "internalType": "uint256",
          "name": "_pid",
          "type": "uint256"
        }
      ],
      "name": "emergencyWithdraw",
      "outputs": [],
      "stateMutability": "nonpayable",
      "type": "function"
    },
    {
      "inputs": [
        {
          "internalType": "address",
          "name": "_devaddr",
          "type": "address"
        }
      ],
      "name": "dev",
      "outputs": [],
      "stateMutability": "nonpayable",
      "type": "function"
    }
  ],
  "bytecode": "0x608060405260006007553480156200001657600080fd5b50604051620033ed380380620033ed83398181016040528101906200003c9190620001ff565b6200005c62000050620000ee60201b60201c565b620000f660201b60201c565b82600160006101000a81548173ffffffffffffffffffffffffffffffffffffffff021916908373ffffffffffffffffffffffffffffffffffffffff16021790555081600260006101000a81548173ffffffffffffffffffffffffffffffffffffffff021916908373ffffffffffffffffffffffffffffffffffffffff16021790555080600881905550505050620002f5565b600033905090565b60008060009054906101000a900473ffffffffffffffffffffffffffffffffffffffff169050816000806101000a81548173ffffffffffffffffffffffffffffffffffffffff021916908373ffffffffffffffffffffffffffffffffffffffff1602179055508173ffffffffffffffffffffffffffffffffffffffff168173ffffffffffffffffffffffffffffffffffffffff167f8be0079c531659141344cd1fd0a4f28419497f9722a3daafe3b4186f6b6457e060405160405180910390a35050565b600081519050620001cb81620002a7565b92915050565b600081519050620001e281620002c1565b92915050565b600081519050620001f981620002db565b92915050565b6000806000606084860312156200021557600080fd5b60006200022586828701620001d1565b93505060206200023886828701620001ba565b92505060406200024b86828701620001e8565b9150509250925092565b600062000262826200027d565b9050919050565b6000620002768262000255565b9050919050565b600073ffffffffffffffffffffffffffffffffffffffff82169050919050565b6000819050919050565b620002b28162000255565b8114620002be57600080fd5b50565b620002cc8162000269565b8114620002d857600080fd5b50565b620002e6816200029d565b8114620002f257600080fd5b50565b6130e880620003056000396000f3fe608060405234801561001057600080fd5b50600436106101585760003560e01c806364482f79116100c357806393f1a40b1161007c57806393f1a40b14610354578063b2fff7ba14610385578063d49e77cd146103b5578063e2bbb158146103d3578063eea02c43146103ef578063f2fde38b1461040d57610158565b806364482f79146102ba578063715018a6146102d65780637cd07e47146102e05780637f10179f146102fe5780638d88a90e1461031a5780638da5cb5b1461033657610158565b8063441a3e7011610115578063441a3e7014610222578063454b06081461023e57806348cd4cb11461025a57806351eb05a6146102785780635312ea8e14610294578063630b5ba1146102b057610158565b8063081e3eda1461015d5780630b65108b1461017b5780631526fe271461019957806317caf6f1146101cc5780631eaaa045146101ea57806323cf311814610206575b600080fd5b610165610429565b6040516101729190612abf565b60405180910390f35b610183610436565b6040516101909190612942565b60405180910390f35b6101b360048036038101906101ae9190612455565b61045c565b6040516101c394939291906128e2565b60405180910390f35b6101d46104bc565b6040516101e19190612abf565b60405180910390f35b61020460048036038101906101ff919061251f565b6104c2565b005b610220600480360381019061021b919061242c565b61064f565b005b61023c6004803603810190610237919061256e565b61070f565b005b61025860048036038101906102539190612455565b610967565b005b610262610d0d565b60405161026f9190612abf565b60405180910390f35b610292600480360381019061028d9190612455565b610d13565b005b6102ae60048036038101906102a99190612455565b610fa1565b005b6102b8611100565b005b6102d460048036038101906102cf91906125aa565b611133565b005b6102de61128b565b005b6102e8611313565b6040516102f59190612927565b60405180910390f35b610318600480360381019061031391906124e3565b611339565b005b610334600480360381019061032f91906123b1565b611413565b005b61033e6114e7565b60405161034b9190612823565b60405180910390f35b61036e600480360381019061036991906124a7565b611510565b60405161037c929190612ada565b60405180910390f35b61039f600480360381019061039a91906124a7565b611541565b6040516103ac9190612abf565b60405180910390f35b6103bd6117a4565b6040516103ca9190612823565b60405180910390f35b6103ed60048036038101906103e8919061256e565b6117ca565b005b6103f76119eb565b6040516104049190612abf565b60405180910390f35b610427600480360381019061042291906123b1565b6119f1565b005b6000600580549050905090565b600160009054906101000a900473ffffffffffffffffffffffffffffffffffffffff1681565b6005818154811061046c57600080fd5b90600052602060002090600402016000915090508060000160009054906101000a900473ffffffffffffffffffffffffffffffffffffffff16908060010154908060020154908060030154905084565b60075481565b6104ca611ae9565b73ffffffffffffffffffffffffffffffffffffffff166104e86114e7565b73ffffffffffffffffffffffffffffffffffffffff161461053e576040517f08c379a0000000000000000000000000000000000000000000000000000000008152600401610535906129df565b60405180910390fd5b801561054d5761054c611100565b5b6000600854431161056057600854610562565b435b905061057984600754611af190919063ffffffff16565b600781905550600560405180608001604052808573ffffffffffffffffffffffffffffffffffffffff1681526020018681526020018381526020016000815250908060018154018082558091505060019003906000526020600020906004020160009091909190915060008201518160000160006101000a81548173ffffffffffffffffffffffffffffffffffffffff021916908373ffffffffffffffffffffffffffffffffffffffff160217905550602082015181600101556040820151816002015560608201518160030155505050505050565b610657611ae9565b73ffffffffffffffffffffffffffffffffffffffff166106756114e7565b73ffffffffffffffffffffffffffffffffffffffff16146106cb576040517f08c379a00000000000000000000000000000000000000000000000000000000081526004016106c2906129df565b60405180910390fd5b80600460006101000a81548173ffffffffffffffffffffffffffffffffffffffff021916908373ffffffffffffffffffffffffffffffffffffffff16021790555050565b60006005838154811061074b577f4e487b7100000000000000000000000000000000000000000000000000000000600052603260045260246000fd5b9060005260206000209060040201905060006006600085815260200190815260200160002060003373ffffffffffffffffffffffffffffffffffffffff1673ffffffffffffffffffffffffffffffffffffffff168152602001908152602001600020905082816000015410156107f6576040517f08c379a00000000000000000000000000000000000000000000000000000000081526004016107ed90612a1f565b60405180910390fd5b6107ff84610d13565b6000610849826001015461083b64e8d4a5100061082d87600301548760000154611b0790919063ffffffff16565b611b1d90919063ffffffff16565b611b3390919063ffffffff16565b9050600081111561085f5761085e3382611b49565b5b60008411156108d75761087f848360000154611b3390919063ffffffff16565b82600001819055506108d633858560000160009054906101000a900473ffffffffffffffffffffffffffffffffffffffff1673ffffffffffffffffffffffffffffffffffffffff16611d6b9092919063ffffffff16565b5b61090964e8d4a510006108fb85600301548560000154611b0790919063ffffffff16565b611b1d90919063ffffffff16565b8260010181905550843373ffffffffffffffffffffffffffffffffffffffff167ff279e6a1f5e320cca91135676d9cb6e44ca8a08c0b88342bcdb1144f6511b568866040516109589190612abf565b60405180910390a35050505050565b600073ffffffffffffffffffffffffffffffffffffffff16600460009054906101000a900473ffffffffffffffffffffffffffffffffffffffff1673ffffffffffffffffffffffffffffffffffffffff1614156109f9576040517f08c379a00000000000000000000000000000000000000000000000000000000081526004016109f090612a9f565b60405180910390fd5b600060058281548110610a35577f4e487b7100000000000000000000000000000000000000000000000000000000600052603260045260246000fd5b9060005260206000209060040201905060008160000160009054906101000a900473ffffffffffffffffffffffffffffffffffffffff16905060008173ffffffffffffffffffffffffffffffffffffffff166370a08231306040518263ffffffff1660e01b8152600401610aa99190612823565b60206040518083038186803b158015610ac157600080fd5b505afa158015610ad5573d6000803e3d6000fd5b505050506040513d601f19601f82011682018060405250810190610af9919061247e565b9050610b48600460009054906101000a900473ffffffffffffffffffffffffffffffffffffffff16828473ffffffffffffffffffffffffffffffffffffffff16611df19092919063ffffffff16565b6000600460009054906101000a900473ffffffffffffffffffffffffffffffffffffffff1673ffffffffffffffffffffffffffffffffffffffff1663ce5494bb846040518263ffffffff1660e01b8152600401610ba591906128c7565b602060405180830381600087803b158015610bbf57600080fd5b505af1158015610bd3573d6000803e3d6000fd5b505050506040513d601f19601f82011682018060405250810190610bf79190612403565b90508073ffffffffffffffffffffffffffffffffffffffff166370a08231306040518263ffffffff1660e01b8152600401610c329190612823565b60206040518083038186803b158015610c4a57600080fd5b505afa158015610c5e573d6000803e3d6000fd5b505050506040513d601f19601f82011682018060405250810190610c82919061247e565b8214610cc3576040517f08c379a0000000000000000000000000000000000000000000000000000000008152600401610cba90612a5f565b60405180910390fd5b808460000160006101000a81548173ffffffffffffffffffffffffffffffffffffffff021916908373ffffffffffffffffffffffffffffffffffffffff1602179055505050505050565b60085481565b600060058281548110610d4f577f4e487b7100000000000000000000000000000000000000000000000000000000600052603260045260246000fd5b9060005260206000209060040201905080600201544311610d705750610f9e565b60008160000160009054906101000a900473ffffffffffffffffffffffffffffffffffffffff1673ffffffffffffffffffffffffffffffffffffffff166370a08231306040518263ffffffff1660e01b8152600401610dcf9190612823565b60206040518083038186803b158015610de757600080fd5b505afa158015610dfb573d6000803e3d6000fd5b505050506040513d601f19601f82011682018060405250810190610e1f919061247e565b90506000811415610e3a574382600201819055505050610f9e565b6000610e53836002015443611b3390919063ffffffff16565b90506000610e96600754610e888660010154610e7a60035487611b0790919063ffffffff16565b611b0790919063ffffffff16565b611b1d90919063ffffffff16565b9050600160009054906101000a900473ffffffffffffffffffffffffffffffffffffffff1673ffffffffffffffffffffffffffffffffffffffff1663a9059cbb30836040518363ffffffff1660e01b8152600401610ef592919061289e565b602060405180830381600087803b158015610f0f57600080fd5b505af1158015610f23573d6000803e3d6000fd5b505050506040513d601f19601f82011682018060405250810190610f4791906123da565b50610f88610f7584610f6764e8d4a5100085611b0790919063ffffffff16565b611b1d90919063ffffffff16565b8560030154611af190919063ffffffff16565b8460030181905550438460020181905550505050505b50565b600060058281548110610fdd577f4e487b7100000000000000000000000000000000000000000000000000000000600052603260045260246000fd5b9060005260206000209060040201905060006006600084815260200190815260200160002060003373ffffffffffffffffffffffffffffffffffffffff1673ffffffffffffffffffffffffffffffffffffffff16815260200190815260200160002090506110943382600001548460000160009054906101000a900473ffffffffffffffffffffffffffffffffffffffff1673ffffffffffffffffffffffffffffffffffffffff16611d6b9092919063ffffffff16565b823373ffffffffffffffffffffffffffffffffffffffff167fbb757047c2b5f3974fe26b7c10f732e7bce710b0952a71082702781e62ae059583600001546040516110df9190612abf565b60405180910390a36000816000018190555060008160010181905550505050565b6000600580549050905060005b8181101561112f5761111e81610d13565b8061112890612d55565b905061110d565b5050565b61113b611ae9565b73ffffffffffffffffffffffffffffffffffffffff166111596114e7565b73ffffffffffffffffffffffffffffffffffffffff16146111af576040517f08c379a00000000000000000000000000000000000000000000000000000000081526004016111a6906129df565b60405180910390fd5b80156111be576111bd611100565b5b61123082611222600586815481106111ff577f4e487b7100000000000000000000000000000000000000000000000000000000600052603260045260246000fd5b906000526020600020906004020160010154600754611b3390919063ffffffff16565b611af190919063ffffffff16565b6007819055508160058481548110611271577f4e487b7100000000000000000000000000000000000000000000000000000000600052603260045260246000fd5b906000526020600020906004020160010181905550505050565b611293611ae9565b73ffffffffffffffffffffffffffffffffffffffff166112b16114e7565b73ffffffffffffffffffffffffffffffffffffffff1614611307576040517f08c379a00000000000000000000000000000000000000000000000000000000081526004016112fe906129df565b60405180910390fd5b6113116000611f4f565b565b600460009054906101000a900473ffffffffffffffffffffffffffffffffffffffff1681565b611341611ae9565b73ffffffffffffffffffffffffffffffffffffffff1661135f6114e7565b73ffffffffffffffffffffffffffffffffffffffff16146113b5576040517f08c379a00000000000000000000000000000000000000000000000000000000081526004016113ac906129df565b60405180910390fd5b80156113c4576113c3611100565b5b81600381905550813373ffffffffffffffffffffffffffffffffffffffff167f619caafabdd75649b302ba8419e48cccf64f37f1983ac4727cfb38b57703ffc960405160405180910390a35050565b600260009054906101000a900473ffffffffffffffffffffffffffffffffffffffff1673ffffffffffffffffffffffffffffffffffffffff163373ffffffffffffffffffffffffffffffffffffffff16146114a3576040517f08c379a000000000000000000000000000000000000000000000000000000000815260040161149a906129bf565b60405180910390fd5b80600260006101000a81548173ffffffffffffffffffffffffffffffffffffffff021916908373ffffffffffffffffffffffffffffffffffffffff16021790555050565b60008060009054906101000a900473ffffffffffffffffffffffffffffffffffffffff16905090565b6006602052816000526040600020602052806000526040600020600091509150508060000154908060010154905082565b6000806005848154811061157e577f4e487b7100000000000000000000000000000000000000000000000000000000600052603260045260246000fd5b9060005260206000209060040201905060006006600086815260200190815260200160002060008573ffffffffffffffffffffffffffffffffffffffff1673ffffffffffffffffffffffffffffffffffffffff168152602001908152602001600020905060008260030154905060008360000160009054906101000a900473ffffffffffffffffffffffffffffffffffffffff1673ffffffffffffffffffffffffffffffffffffffff166370a08231306040518263ffffffff1660e01b815260040161164a9190612823565b60206040518083038186803b15801561166257600080fd5b505afa158015611676573d6000803e3d6000fd5b505050506040513d601f19601f8201168201806040525081019061169a919061247e565b90508360020154431180156116b0575060008114155b156117545760006116ce856002015443611b3390919063ffffffff16565b9050600061171160075461170388600101546116f560035487611b0790919063ffffffff16565b611b0790919063ffffffff16565b611b1d90919063ffffffff16565b905061174f6117408461173264e8d4a5100085611b0790919063ffffffff16565b611b1d90919063ffffffff16565b85611af190919063ffffffff16565b935050505b611798836001015461178a64e8d4a5100061177c868860000154611b0790919063ffffffff16565b611b1d90919063ffffffff16565b611b3390919063ffffffff16565b94505050505092915050565b600260009054906101000a900473ffffffffffffffffffffffffffffffffffffffff1681565b600060058381548110611806577f4e487b7100000000000000000000000000000000000000000000000000000000600052603260045260246000fd5b9060005260206000209060040201905060006006600085815260200190815260200160002060003373ffffffffffffffffffffffffffffffffffffffff1673ffffffffffffffffffffffffffffffffffffffff168152602001908152602001600020905061187384610d13565b6000816000015411156118e25760006118ca82600101546118bc64e8d4a510006118ae87600301548760000154611b0790919063ffffffff16565b611b1d90919063ffffffff16565b611b3390919063ffffffff16565b905060008111156118e0576118df3382611b49565b5b505b600083111561195c5761193c3330858560000160009054906101000a900473ffffffffffffffffffffffffffffffffffffffff1673ffffffffffffffffffffffffffffffffffffffff16612013909392919063ffffffff16565b611953838260000154611af190919063ffffffff16565b81600001819055505b61198e64e8d4a5100061198084600301548460000154611b0790919063ffffffff16565b611b1d90919063ffffffff16565b8160010181905550833373ffffffffffffffffffffffffffffffffffffffff167f90890809c654f11d6e72a28fa60149770a0d11ec6c92319d6ceb2bb0a4ea1a15856040516119dd9190612abf565b60405180910390a350505050565b60035481565b6119f9611ae9565b73ffffffffffffffffffffffffffffffffffffffff16611a176114e7565b73ffffffffffffffffffffffffffffffffffffffff1614611a6d576040517f08c379a0000000000000000000000000000000000000000000000000000000008152600401611a64906129df565b60405180910390fd5b600073ffffffffffffffffffffffffffffffffffffffff168173ffffffffffffffffffffffffffffffffffffffff161415611add576040517f08c379a0000000000000000000000000000000000000000000000000000000008152600401611ad49061297f565b60405180910390fd5b611ae681611f4f565b50565b600033905090565b60008183611aff9190612b35565b905092915050565b60008183611b159190612bbc565b905092915050565b60008183611b2b9190612b8b565b905092915050565b60008183611b419190612c16565b905092915050565b6000600160009054906101000a900473ffffffffffffffffffffffffffffffffffffffff1673ffffffffffffffffffffffffffffffffffffffff166370a08231306040518263ffffffff1660e01b8152600401611ba69190612823565b60206040518083038186803b158015611bbe57600080fd5b505afa158015611bd2573d6000803e3d6000fd5b505050506040513d601f19601f82011682018060405250810190611bf6919061247e565b905080821115611cb557600160009054906101000a900473ffffffffffffffffffffffffffffffffffffffff1673ffffffffffffffffffffffffffffffffffffffff1663a9059cbb84836040518363ffffffff1660e01b8152600401611c5d92919061289e565b602060405180830381600087803b158015611c7757600080fd5b505af1158015611c8b573d6000803e3d6000fd5b505050506040513d601f19601f82011682018060405250810190611caf91906123da565b50611d66565b600160009054906101000a900473ffffffffffffffffffffffffffffffffffffffff1673ffffffffffffffffffffffffffffffffffffffff1663a9059cbb84846040518363ffffffff1660e01b8152600401611d1292919061289e565b602060405180830381600087803b158015611d2c57600080fd5b505af1158015611d40573d6000803e3d6000fd5b505050506040513d601f19601f82011682018060405250810190611d6491906123da565b505b505050565b611dec8363a9059cbb60e01b8484604051602401611d8a92919061289e565b604051602081830303815290604052907bffffffffffffffffffffffffffffffffffffffffffffffffffffffff19166020820180517bffffffffffffffffffffffffffffffffffffffffffffffffffffffff838183161783525050505061209c565b505050565b6000811480611e8a575060008373ffffffffffffffffffffffffffffffffffffffff1663dd62ed3e30856040518363ffffffff1660e01b8152600401611e3892919061283e565b60206040518083038186803b158015611e5057600080fd5b505afa158015611e64573d6000803e3d6000fd5b505050506040513d601f19601f82011682018060405250810190611e88919061247e565b145b611ec9576040517f08c379a0000000000000000000000000000000000000000000000000000000008152600401611ec090612a7f565b60405180910390fd5b611f4a8363095ea7b360e01b8484604051602401611ee892919061289e565b604051602081830303815290604052907bffffffffffffffffffffffffffffffffffffffffffffffffffffffff19166020820180517bffffffffffffffffffffffffffffffffffffffffffffffffffffffff838183161783525050505061209c565b505050565b60008060009054906101000a900473ffffffffffffffffffffffffffffffffffffffff169050816000806101000a81548173ffffffffffffffffffffffffffffffffffffffff021916908373ffffffffffffffffffffffffffffffffffffffff1602179055508173ffffffffffffffffffffffffffffffffffffffff168173ffffffffffffffffffffffffffffffffffffffff167f8be0079c531659141344cd1fd0a4f28419497f9722a3daafe3b4186f6b6457e060405160405180910390a35050565b612096846323b872dd60e01b85858560405160240161203493929190612867565b604051602081830303815290604052907bffffffffffffffffffffffffffffffffffffffffffffffffffffffff19166020820180517bffffffffffffffffffffffffffffffffffffffffffffffffffffffff838183161783525050505061209c565b50505050565b60006120fe826040518060400160405280602081526020017f5361666545524332303a206c6f772d6c6576656c2063616c6c206661696c65648152508573ffffffffffffffffffffffffffffffffffffffff166121639092919063ffffffff16565b905060008151111561215e578080602001905181019061211e91906123da565b61215d576040517f08c379a000000000000000000000000000000000000000000000000000000000815260040161215490612a3f565b60405180910390fd5b5b505050565b6060612172848460008561217b565b90509392505050565b6060824710156121c0576040517f08c379a00000000000000000000000000000000000000000000000000000000081526004016121b79061299f565b60405180910390fd5b6121c98561228f565b612208576040517f08c379a00000000000000000000000000000000000000000000000000000000081526004016121ff906129ff565b60405180910390fd5b6000808673ffffffffffffffffffffffffffffffffffffffff168587604051612231919061280c565b60006040518083038185875af1925050503d806000811461226e576040519150601f19603f3d011682016040523d82523d6000602084013e612273565b606091505b50915091506122838282866122a2565b92505050949350505050565b600080823b905060008111915050919050565b606083156122b257829050612302565b6000835111156122c55782518084602001fd5b816040517f08c379a00000000000000000000000000000000000000000000000000000000081526004016122f9919061295d565b60405180910390fd5b9392505050565b6000813590506123188161303f565b92915050565b60008135905061232d81613056565b92915050565b60008151905061234281613056565b92915050565b6000813590506123578161306d565b92915050565b60008151905061236c8161306d565b92915050565b60008135905061238181613084565b92915050565b6000813590506123968161309b565b92915050565b6000815190506123ab8161309b565b92915050565b6000602082840312156123c357600080fd5b60006123d184828501612309565b91505092915050565b6000602082840312156123ec57600080fd5b60006123fa84828501612333565b91505092915050565b60006020828403121561241557600080fd5b60006124238482850161235d565b91505092915050565b60006020828403121561243e57600080fd5b600061244c84828501612372565b91505092915050565b60006020828403121561246757600080fd5b600061247584828501612387565b91505092915050565b60006020828403121561249057600080fd5b600061249e8482850161239c565b91505092915050565b600080604083850312156124ba57600080fd5b60006124c885828601612387565b92505060206124d985828601612309565b9150509250929050565b600080604083850312156124f657600080fd5b600061250485828601612387565b92505060206125158582860161231e565b9150509250929050565b60008060006060848603121561253457600080fd5b600061254286828701612387565b935050602061255386828701612348565b92505060406125648682870161231e565b9150509250925092565b6000806040838503121561258157600080fd5b600061258f85828601612387565b92505060206125a085828601612387565b9150509250929050565b6000806000606084860312156125bf57600080fd5b60006125cd86828701612387565b93505060206125de86828701612387565b92505060406125ef8682870161231e565b9150509250925092565b61260281612c4a565b82525050565b600061261382612b03565b61261d8185612b19565b935061262d818560208601612d22565b80840191505092915050565b61264281612cb6565b82525050565b61265181612cda565b82525050565b61266081612cfe565b82525050565b600061267182612b0e565b61267b8185612b24565b935061268b818560208601612d22565b61269481612dfc565b840191505092915050565b60006126ac602683612b24565b91506126b782612e0d565b604082019050919050565b60006126cf602683612b24565b91506126da82612e5c565b604082019050919050565b60006126f2600983612b24565b91506126fd82612eab565b602082019050919050565b6000612715602083612b24565b915061272082612ed4565b602082019050919050565b6000612738601d83612b24565b915061274382612efd565b602082019050919050565b600061275b601283612b24565b915061276682612f26565b602082019050919050565b600061277e602a83612b24565b915061278982612f4f565b604082019050919050565b60006127a1600c83612b24565b91506127ac82612f9e565b602082019050919050565b60006127c4603683612b24565b91506127cf82612fc7565b604082019050919050565b60006127e7601483612b24565b91506127f282613016565b602082019050919050565b61280681612cac565b82525050565b60006128188284612608565b915081905092915050565b600060208201905061283860008301846125f9565b92915050565b600060408201905061285360008301856125f9565b61286060208301846125f9565b9392505050565b600060608201905061287c60008301866125f9565b61288960208301856125f9565b61289660408301846127fd565b949350505050565b60006040820190506128b360008301856125f9565b6128c060208301846127fd565b9392505050565b60006020820190506128dc6000830184612639565b92915050565b60006080820190506128f76000830187612639565b61290460208301866127fd565b61291160408301856127fd565b61291e60608301846127fd565b95945050505050565b600060208201905061293c6000830184612648565b92915050565b60006020820190506129576000830184612657565b92915050565b600060208201905081810360008301526129778184612666565b905092915050565b600060208201905081810360008301526129988161269f565b9050919050565b600060208201905081810360008301526129b8816126c2565b9050919050565b600060208201905081810360008301526129d8816126e5565b9050919050565b600060208201905081810360008301526129f881612708565b9050919050565b60006020820190508181036000830152612a188161272b565b9050919050565b60006020820190508181036000830152612a388161274e565b9050919050565b60006020820190508181036000830152612a5881612771565b9050919050565b60006020820190508181036000830152612a7881612794565b9050919050565b60006020820190508181036000830152612a98816127b7565b9050919050565b60006020820190508181036000830152612ab8816127da565b9050919050565b6000602082019050612ad460008301846127fd565b92915050565b6000604082019050612aef60008301856127fd565b612afc60208301846127fd565b9392505050565b600081519050919050565b600081519050919050565b600081905092915050565b600082825260208201905092915050565b6000612b4082612cac565b9150612b4b83612cac565b9250827fffffffffffffffffffffffffffffffffffffffffffffffffffffffffffffffff03821115612b8057612b7f612d9e565b5b828201905092915050565b6000612b9682612cac565b9150612ba183612cac565b925082612bb157612bb0612dcd565b5b828204905092915050565b6000612bc782612cac565b9150612bd283612cac565b9250817fffffffffffffffffffffffffffffffffffffffffffffffffffffffffffffffff0483118215151615612c0b57612c0a612d9e565b5b828202905092915050565b6000612c2182612cac565b9150612c2c83612cac565b925082821015612c3f57612c3e612d9e565b5b828203905092915050565b6000612c5582612c8c565b9050919050565b60008115159050919050565b6000612c7382612c4a565b9050919050565b6000612c8582612c4a565b9050919050565b600073ffffffffffffffffffffffffffffffffffffffff82169050919050565b6000819050919050565b6000612cc182612cc8565b9050919050565b6000612cd382612c8c565b9050919050565b6000612ce582612cec565b9050919050565b6000612cf782612c8c565b9050919050565b6000612d0982612d10565b9050919050565b6000612d1b82612c8c565b9050919050565b60005b83811015612d40578082015181840152602081019050612d25565b83811115612d4f576000848401525b50505050565b6000612d6082612cac565b91507fffffffffffffffffffffffffffffffffffffffffffffffffffffffffffffffff821415612d9357612d92612d9e565b5b600182019050919050565b7f4e487b7100000000000000000000000000000000000000000000000000000000600052601160045260246000fd5b7f4e487b7100000000000000000000000000000000000000000000000000000000600052601260045260246000fd5b6000601f19601f8301169050919050565b7f4f776e61626c653a206e6577206f776e657220697320746865207a65726f206160008201527f6464726573730000000000000000000000000000000000000000000000000000602082015250565b7f416464726573733a20696e73756666696369656e742062616c616e636520666f60008201527f722063616c6c0000000000000000000000000000000000000000000000000000602082015250565b7f6465763a207775743f0000000000000000000000000000000000000000000000600082015250565b7f4f776e61626c653a2063616c6c6572206973206e6f7420746865206f776e6572600082015250565b7f416464726573733a2063616c6c20746f206e6f6e2d636f6e7472616374000000600082015250565b7f77697468647261773a206e6f7420676f6f640000000000000000000000000000600082015250565b7f5361666545524332303a204552433230206f7065726174696f6e20646964206e60008201527f6f74207375636365656400000000000000000000000000000000000000000000602082015250565b7f6d6967726174653a206261640000000000000000000000000000000000000000600082015250565b7f5361666545524332303a20617070726f76652066726f6d206e6f6e2d7a65726f60008201527f20746f206e6f6e2d7a65726f20616c6c6f77616e636500000000000000000000602082015250565b7f6d6967726174653a206e6f206d69677261746f72000000000000000000000000600082015250565b61304881612c4a565b811461305357600080fd5b50565b61305f81612c5c565b811461306a57600080fd5b50565b61307681612c68565b811461308157600080fd5b50565b61308d81612c7a565b811461309857600080fd5b50565b6130a481612cac565b81146130af57600080fd5b5056fea2646970667358221220e21a1e5e618094d8741f45915885263a93953121b197ebac5c054b9b0cd5d06d64736f6c63430008020033",
  "immutableReferences": {},
  "source": "// SPDX-License-Identifier: MIT\npragma solidity ^0.8.2;\n\n\nimport \"@openzeppelin/contracts/token/ERC20/IERC20.sol\";\nimport \"@openzeppelin/contracts/token/ERC20/utils/SafeERC20.sol\";\nimport \"@openzeppelin/contracts/utils/structs/EnumerableSet.sol\";\nimport \"@openzeppelin/contracts/utils/math/SafeMath.sol\";\nimport \"@openzeppelin/contracts/access/Ownable.sol\";\nimport \"./Token.sol\";\n\n\ninterface IMigratorChef {\n    // Perform LP token migration from legacy UniswapV2 to mergeSwap.\n    // Take the current LP token address and return the new LP token address.\n    // Migrator should have full access to the caller's LP token.\n    // Return the new LP token address.\n    //\n    // XXX Migrator must have allowance access to UniswapV2 LP tokens.\n    // mergeSwap must mint EXACTLY the same amount of mergeSwap LP tokens or\n    // else something bad will happen. Traditional UniswapV2 does not\n    // do that so be careful!\n    function migrate(IERC20 token) external returns (IERC20);\n}\n\n// MasterChef is the master of merge. He can make merge and he is a fair guy.\n//\n// Note that it's ownable and the owner wields tremendous power. The ownership\n// will be transferred to a governance smart contract once merge is sufficiently\n// distributed and the community can show to govern itself.\n//\n// Have fun reading it. Hopefully it's bug-free. God bless.\ncontract MasterChef is Ownable {\n    using SafeMath for uint256;\n    using SafeERC20 for IERC20;\n\n    // Info of each user.\n    struct UserInfo {\n        uint256 amount;     // How many LP tokens the user has provided.\n        uint256 rewardDebt; // Reward debt. See explanation below.\n        //\n        // We do some fancy math here. Basically, any point in time, the amount of merges\n        // entitled to a user but is pending to be distributed is:\n        //\n        //   pending reward = (user.amount * pool.accmergePerShare) - user.rewardDebt\n        //\n        // Whenever a user deposits or withdraws LP tokens to a pool. Here's what happens:\n        //   1. The pool's `accmergePerShare` (and `lastRewardBlock`) gets updated.\n        //   2. User receives the pending reward sent to his/her address.\n        //   3. User's `amount` gets updated.\n        //   4. User's `rewardDebt` gets updated.\n    }\n\n    // Info of each pool.\n    struct PoolInfo {\n        IERC20 lpToken;           // Address of LP token contract.\n        uint256 allocPoint;       // How many allocation points assigned to this pool. merges to distribute per block.\n        uint256 lastRewardBlock;  // Last block number that merges distribution occurs.\n        uint256 accmergePerShare; // Accumulated merges per share, times 1e12. See below.\n    }\n\n    // The merge TOKEN!\n    Token public merge;\n    // Dev address.\n    address public devaddr;\n    // merge tokens created per block.\n    uint256 public mergePerBlock;\n    // The migrator contract. It has a lot of power. Can only be set through governance (owner).\n    IMigratorChef public migrator;\n\n    // Info of each pool.\n    PoolInfo[] public poolInfo;\n    // Info of each user that stakes LP tokens.\n    mapping (uint256 => mapping (address => UserInfo)) public userInfo;\n    // Total allocation poitns. Must be the sum of all allocation points in all pools.\n    uint256 public totalAllocPoint = 0;\n    // The block number when merge mining starts.\n    uint256 public startBlock;\n\n\n    event Deposit(address indexed user, uint256 indexed pid, uint256 amount);\n    event Withdraw(address indexed user, uint256 indexed pid, uint256 amount);\n    event Reward(address indexed user, uint256 indexed mergePerBlock);\n    event EmergencyWithdraw(address indexed user, uint256 indexed pid, uint256 amount);\n\n    constructor(\n        Token _merge,\n        address _devaddr,\n        //uint256 _mergePerBlock,\n        uint256 _startBlock\n        //uint256 _bonusEndBlock\n    ) {\n        merge = _merge;\n        devaddr = _devaddr;\n        startBlock = _startBlock;\n    }\n\n    function poolLength() external view returns (uint256) {\n        return poolInfo.length;\n    }\n\n    // Add a new lp to the pool. Can only be called by the owner.\n    // XXX DO NOT add the same LP token more than once. Rewards will be messed up if you do.\n    function add(uint256 _allocPoint, IERC20 _lpToken, bool _withUpdate) public onlyOwner {\n        if (_withUpdate) {\n            massUpdatePools();\n        }\n        uint256 lastRewardBlock = block.number > startBlock ? block.number : startBlock;\n        totalAllocPoint = totalAllocPoint.add(_allocPoint);\n        poolInfo.push(PoolInfo({\n            lpToken: _lpToken,\n            allocPoint: _allocPoint,\n            lastRewardBlock: lastRewardBlock,\n            accmergePerShare: 0\n        }));\n    }\n\n    // Update the given pool's merge allocation point. Can only be called by the owner.\n    function set(uint256 _pid, uint256 _allocPoint, bool _withUpdate) public onlyOwner {\n        if (_withUpdate) {\n            massUpdatePools();\n        }\n        totalAllocPoint = totalAllocPoint.sub(poolInfo[_pid].allocPoint).add(_allocPoint);\n        poolInfo[_pid].allocPoint = _allocPoint;\n    }\n\n        // Set the mergePerBlock contract. Can only be called by the owner.\n    function setReward(uint256 _mergePerBlock, bool _withUpdate) public onlyOwner {\n        //require(msg.sender == devaddr, \"dev: wut?\");\n        if (_withUpdate) {\n            massUpdatePools();\n        }\n        mergePerBlock = _mergePerBlock;\n        emit Reward(msg.sender, _mergePerBlock);\n    }\n\n    // Set the migrator contract. Can only be called by the owner.\n    function setMigrator(IMigratorChef _migrator) public onlyOwner {\n        migrator = _migrator;\n    }\n\n    // Migrate lp token to another lp contract. Can be called by anyone. We trust that migrator contract is good.\n    function migrate(uint256 _pid) public {\n        require(address(migrator) != address(0), \"migrate: no migrator\");\n        PoolInfo storage pool = poolInfo[_pid];\n        IERC20 lpToken = pool.lpToken;\n        uint256 bal = lpToken.balanceOf(address(this));\n        lpToken.safeApprove(address(migrator), bal);\n        IERC20 newLpToken = migrator.migrate(lpToken);\n        require(bal == newLpToken.balanceOf(address(this)), \"migrate: bad\");\n        pool.lpToken = newLpToken;\n    }\n\n    // View function to see pending merges on frontend.\n    function pendingmerge(uint256 _pid, address _user) external view returns (uint256) {\n        PoolInfo storage pool = poolInfo[_pid];\n        UserInfo storage user = userInfo[_pid][_user];\n        uint256 accmergePerShare = pool.accmergePerShare;\n        uint256 lpSupply = pool.lpToken.balanceOf(address(this));\n        if (block.number > pool.lastRewardBlock && lpSupply != 0) {\n            uint256 multiplier = block.number.sub(pool.lastRewardBlock);\n            uint256 mergeReward = multiplier.mul(mergePerBlock).mul(pool.allocPoint).div(totalAllocPoint);\n            accmergePerShare = accmergePerShare.add(mergeReward.mul(1e12).div(lpSupply));\n        }\n        return user.amount.mul(accmergePerShare).div(1e12).sub(user.rewardDebt);\n    }\n\n    // Update reward variables for all pools. Be careful of gas spending!\n    function massUpdatePools() public {\n        uint256 length = poolInfo.length;\n        for (uint256 pid = 0; pid < length; ++pid) {\n            updatePool(pid);\n        }\n    }\n\n    // Update reward variables of the given pool to be up-to-date.\n    function updatePool(uint256 _pid) public {\n        PoolInfo storage pool = poolInfo[_pid];\n        if (block.number <= pool.lastRewardBlock) {\n            return;\n        }\n        uint256 lpSupply = pool.lpToken.balanceOf(address(this));\n        if (lpSupply == 0) {\n            pool.lastRewardBlock = block.number;\n            return;\n        }\n        uint256 multiplier = block.number.sub(pool.lastRewardBlock);\n        uint256 mergeReward = multiplier.mul(mergePerBlock).mul(pool.allocPoint).div(totalAllocPoint);\n        //merge.mint(devaddr, mergeReward.div(10));\n        merge.transfer(address(this), mergeReward);\n        pool.accmergePerShare = pool.accmergePerShare.add(mergeReward.mul(1e12).div(lpSupply));\n        pool.lastRewardBlock = block.number;\n    }\n\n    // Deposit LP tokens to MasterChef for merge allocation.\n    function deposit(uint256 _pid, uint256 _amount) public {\n        PoolInfo storage pool = poolInfo[_pid];\n        UserInfo storage user = userInfo[_pid][msg.sender];\n        updatePool(_pid);\n        if (user.amount > 0) {\n            uint256 pending = user.amount.mul(pool.accmergePerShare).div(1e12).sub(user.rewardDebt);\n            if(pending > 0) {\n                safemergeTransfer(msg.sender, pending);\n            }\n        }\n        if(_amount > 0) {\n            pool.lpToken.safeTransferFrom(address(msg.sender), address(this), _amount);\n            user.amount = user.amount.add(_amount);\n        }\n        user.rewardDebt = user.amount.mul(pool.accmergePerShare).div(1e12);\n        emit Deposit(msg.sender, _pid, _amount);\n    }\n\n    // Withdraw LP tokens from MasterChef.\n    function withdraw(uint256 _pid, uint256 _amount) public {\n        PoolInfo storage pool = poolInfo[_pid];\n        UserInfo storage user = userInfo[_pid][msg.sender];\n        require(user.amount >= _amount, \"withdraw: not good\");\n        updatePool(_pid);\n        uint256 pending = user.amount.mul(pool.accmergePerShare).div(1e12).sub(user.rewardDebt);\n        if(pending > 0) {\n            safemergeTransfer(msg.sender, pending);\n        }\n        if(_amount > 0) {\n            user.amount = user.amount.sub(_amount);\n            pool.lpToken.safeTransfer(address(msg.sender), _amount);\n        }\n        user.rewardDebt = user.amount.mul(pool.accmergePerShare).div(1e12);\n        emit Withdraw(msg.sender, _pid, _amount);\n    }\n\n    // Withdraw without caring about rewards. EMERGENCY ONLY.\n    function emergencyWithdraw(uint256 _pid) public {\n        PoolInfo storage pool = poolInfo[_pid];\n        UserInfo storage user = userInfo[_pid][msg.sender];\n        pool.lpToken.safeTransfer(address(msg.sender), user.amount);\n        emit EmergencyWithdraw(msg.sender, _pid, user.amount);\n        user.amount = 0;\n        user.rewardDebt = 0;\n    }\n\n    // Safe merge transfer function, just in case if rounding error causes pool to not have enough merges.\n    function safemergeTransfer(address _to, uint256 _amount) internal {\n        uint256 mergeBal = merge.balanceOf(address(this));\n        if (_amount > mergeBal) {\n            merge.transfer(_to, mergeBal);\n        } else {\n            merge.transfer(_to, _amount);\n        }\n    }\n\n    // Update dev address by the previous dev.\n    function dev(address _devaddr) public {\n        require(msg.sender == devaddr, \"dev: wut?\");\n        devaddr = _devaddr;\n    }\n}\n",
  "sourcePath": "/home/dfwplay/juicyswap/juicyswap-master/src/contracts/MasterChef.sol",
  "compiler": {
    "name": "solc",
    "version": "0.8.2+commit.661d1103.Emscripten.clang"
  },
  "schemaVersion": "3.4.2",
  "updatedAt": "2021-08-18T23:31:11.211Z",
  "networkType": "ethereum",
  "devdoc": {
    "kind": "dev",
    "methods": {
      "owner()": {
        "details": "Returns the address of the current owner."
      },
      "renounceOwnership()": {
        "details": "Leaves the contract without owner. It will not be possible to call `onlyOwner` functions anymore. Can only be called by the current owner. NOTE: Renouncing ownership will leave the contract without an owner, thereby removing any functionality that is only available to the owner."
      },
      "transferOwnership(address)": {
        "details": "Transfers ownership of the contract to a new account (`newOwner`). Can only be called by the current owner."
      }
    },
    "version": 1
  },
  "userdoc": {
    "kind": "user",
    "methods": {},
    "version": 1
  }
}