{
  "contractName": "Token",
  "abi": [
    {
      "anonymous": false,
      "inputs": [
        {
          "indexed": false,
          "internalType": "address",
          "name": "previousAdmin",
          "type": "address"
        },
        {
          "indexed": false,
          "internalType": "address",
          "name": "newAdmin",
          "type": "address"
        }
      ],
      "name": "AdminChanged",
      "type": "event"
    },
    {
      "anonymous": false,
      "inputs": [
        {
          "indexed": true,
          "internalType": "address",
          "name": "owner",
          "type": "address"
        },
        {
          "indexed": true,
          "internalType": "address",
          "name": "spender",
          "type": "address"
        },
        {
          "indexed": false,
          "internalType": "uint256",
          "name": "value",
          "type": "uint256"
        }
      ],
      "name": "Approval",
      "type": "event"
    },
    {
      "anonymous": false,
      "inputs": [
        {
          "indexed": true,
          "internalType": "address",
          "name": "beacon",
          "type": "address"
        }
      ],
      "name": "BeaconUpgraded",
      "type": "event"
    },
    {
      "anonymous": false,
      "inputs": [
        {
          "indexed": true,
          "internalType": "address",
          "name": "previousOwner",
          "type": "address"
        },
        {
          "indexed": true,
          "internalType": "address",
          "name": "newOwner",
          "type": "address"
        }
      ],
      "name": "OwnershipTransferred",
      "type": "event"
    },
    {
      "anonymous": false,
      "inputs": [
        {
          "indexed": false,
          "internalType": "address",
          "name": "account",
          "type": "address"
        }
      ],
      "name": "Paused",
      "type": "event"
    },
    {
      "anonymous": false,
      "inputs": [
        {
          "indexed": true,
          "internalType": "address",
          "name": "from",
          "type": "address"
        },
        {
          "indexed": true,
          "internalType": "address",
          "name": "to",
          "type": "address"
        },
        {
          "indexed": false,
          "internalType": "uint256",
          "name": "value",
          "type": "uint256"
        }
      ],
      "name": "Transfer",
      "type": "event"
    },
    {
      "anonymous": false,
      "inputs": [
        {
          "indexed": false,
          "internalType": "address",
          "name": "account",
          "type": "address"
        }
      ],
      "name": "Unpaused",
      "type": "event"
    },
    {
      "anonymous": false,
      "inputs": [
        {
          "indexed": true,
          "internalType": "address",
          "name": "implementation",
          "type": "address"
        }
      ],
      "name": "Upgraded",
      "type": "event"
    },
    {
      "inputs": [],
      "name": "DOMAIN_SEPARATOR",
      "outputs": [
        {
          "internalType": "bytes32",
          "name": "",
          "type": "bytes32"
        }
      ],
      "stateMutability": "view",
      "type": "function",
      "constant": true
    },
    {
      "inputs": [
        {
          "internalType": "address",
          "name": "owner",
          "type": "address"
        },
        {
          "internalType": "address",
          "name": "spender",
          "type": "address"
        }
      ],
      "name": "allowance",
      "outputs": [
        {
          "internalType": "uint256",
          "name": "",
          "type": "uint256"
        }
      ],
      "stateMutability": "view",
      "type": "function",
      "constant": true
    },
    {
      "inputs": [
        {
          "internalType": "address",
          "name": "spender",
          "type": "address"
        },
        {
          "internalType": "uint256",
          "name": "amount",
          "type": "uint256"
        }
      ],
      "name": "approve",
      "outputs": [
        {
          "internalType": "bool",
          "name": "",
          "type": "bool"
        }
      ],
      "stateMutability": "nonpayable",
      "type": "function"
    },
    {
      "inputs": [
        {
          "internalType": "address",
          "name": "account",
          "type": "address"
        }
      ],
      "name": "balanceOf",
      "outputs": [
        {
          "internalType": "uint256",
          "name": "",
          "type": "uint256"
        }
      ],
      "stateMutability": "view",
      "type": "function",
      "constant": true
    },
    {
      "inputs": [
        {
          "internalType": "uint256",
          "name": "amount",
          "type": "uint256"
        }
      ],
      "name": "burn",
      "outputs": [],
      "stateMutability": "nonpayable",
      "type": "function"
    },
    {
      "inputs": [
        {
          "internalType": "address",
          "name": "account",
          "type": "address"
        },
        {
          "internalType": "uint256",
          "name": "amount",
          "type": "uint256"
        }
      ],
      "name": "burnFrom",
      "outputs": [],
      "stateMutability": "nonpayable",
      "type": "function"
    },
    {
      "inputs": [],
      "name": "decimals",
      "outputs": [
        {
          "internalType": "uint8",
          "name": "",
          "type": "uint8"
        }
      ],
      "stateMutability": "view",
      "type": "function",
      "constant": true
    },
    {
      "inputs": [
        {
          "internalType": "address",
          "name": "spender",
          "type": "address"
        },
        {
          "internalType": "uint256",
          "name": "subtractedValue",
          "type": "uint256"
        }
      ],
      "name": "decreaseAllowance",
      "outputs": [
        {
          "internalType": "bool",
          "name": "",
          "type": "bool"
        }
      ],
      "stateMutability": "nonpayable",
      "type": "function"
    },
    {
      "inputs": [
        {
          "internalType": "address",
          "name": "spender",
          "type": "address"
        },
        {
          "internalType": "uint256",
          "name": "addedValue",
          "type": "uint256"
        }
      ],
      "name": "increaseAllowance",
      "outputs": [
        {
          "internalType": "bool",
          "name": "",
          "type": "bool"
        }
      ],
      "stateMutability": "nonpayable",
      "type": "function"
    },
    {
      "inputs": [],
      "name": "name",
      "outputs": [
        {
          "internalType": "string",
          "name": "",
          "type": "string"
        }
      ],
      "stateMutability": "view",
      "type": "function",
      "constant": true
    },
    {
      "inputs": [
        {
          "internalType": "address",
          "name": "owner",
          "type": "address"
        }
      ],
      "name": "nonces",
      "outputs": [
        {
          "internalType": "uint256",
          "name": "",
          "type": "uint256"
        }
      ],
      "stateMutability": "view",
      "type": "function",
      "constant": true
    },
    {
      "inputs": [],
      "name": "owner",
      "outputs": [
        {
          "internalType": "address",
          "name": "",
          "type": "address"
        }
      ],
      "stateMutability": "view",
      "type": "function",
      "constant": true
    },
    {
      "inputs": [],
      "name": "paused",
      "outputs": [
        {
          "internalType": "bool",
          "name": "",
          "type": "bool"
        }
      ],
      "stateMutability": "view",
      "type": "function",
      "constant": true
    },
    {
      "inputs": [
        {
          "internalType": "address",
          "name": "owner",
          "type": "address"
        },
        {
          "internalType": "address",
          "name": "spender",
          "type": "address"
        },
        {
          "internalType": "uint256",
          "name": "value",
          "type": "uint256"
        },
        {
          "internalType": "uint256",
          "name": "deadline",
          "type": "uint256"
        },
        {
          "internalType": "uint8",
          "name": "v",
          "type": "uint8"
        },
        {
          "internalType": "bytes32",
          "name": "r",
          "type": "bytes32"
        },
        {
          "internalType": "bytes32",
          "name": "s",
          "type": "bytes32"
        }
      ],
      "name": "permit",
      "outputs": [],
      "stateMutability": "nonpayable",
      "type": "function"
    },
    {
      "inputs": [],
      "name": "renounceOwnership",
      "outputs": [],
      "stateMutability": "nonpayable",
      "type": "function"
    },
    {
      "inputs": [],
      "name": "symbol",
      "outputs": [
        {
          "internalType": "string",
          "name": "",
          "type": "string"
        }
      ],
      "stateMutability": "view",
      "type": "function",
      "constant": true
    },
    {
      "inputs": [],
      "name": "totalSupply",
      "outputs": [
        {
          "internalType": "uint256",
          "name": "",
          "type": "uint256"
        }
      ],
      "stateMutability": "view",
      "type": "function",
      "constant": true
    },
    {
      "inputs": [
        {
          "internalType": "address",
          "name": "recipient",
          "type": "address"
        },
        {
          "internalType": "uint256",
          "name": "amount",
          "type": "uint256"
        }
      ],
      "name": "transfer",
      "outputs": [
        {
          "internalType": "bool",
          "name": "",
          "type": "bool"
        }
      ],
      "stateMutability": "nonpayable",
      "type": "function"
    },
    {
      "inputs": [
        {
          "internalType": "address",
          "name": "sender",
          "type": "address"
        },
        {
          "internalType": "address",
          "name": "recipient",
          "type": "address"
        },
        {
          "internalType": "uint256",
          "name": "amount",
          "type": "uint256"
        }
      ],
      "name": "transferFrom",
      "outputs": [
        {
          "internalType": "bool",
          "name": "",
          "type": "bool"
        }
      ],
      "stateMutability": "nonpayable",
      "type": "function"
    },
    {
      "inputs": [
        {
          "internalType": "address",
          "name": "newOwner",
          "type": "address"
        }
      ],
      "name": "transferOwnership",
      "outputs": [],
      "stateMutability": "nonpayable",
      "type": "function"
    },
    {
      "inputs": [
        {
          "internalType": "address",
          "name": "newImplementation",
          "type": "address"
        }
      ],
      "name": "upgradeTo",
      "outputs": [],
      "stateMutability": "nonpayable",
      "type": "function"
    },
    {
      "inputs": [
        {
          "internalType": "address",
          "name": "newImplementation",
          "type": "address"
        },
        {
          "internalType": "bytes",
          "name": "data",
          "type": "bytes"
        }
      ],
      "name": "upgradeToAndCall",
      "outputs": [],
      "stateMutability": "payable",
      "type": "function",
      "payable": true
    },
    {
      "inputs": [
        {
          "internalType": "string",
          "name": "name",
          "type": "string"
        },
        {
          "internalType": "string",
          "name": "symbol",
          "type": "string"
        },
        {
          "internalType": "uint256",
          "name": "initialSupply",
          "type": "uint256"
        }
      ],
      "name": "initialize",
      "outputs": [],
      "stateMutability": "nonpayable",
      "type": "function"
    },
    {
      "inputs": [],
      "name": "pause",
      "outputs": [],
      "stateMutability": "nonpayable",
      "type": "function"
    },
    {
      "inputs": [],
      "name": "unpause",
      "outputs": [],
      "stateMutability": "nonpayable",
      "type": "function"
    },
    {
      "inputs": [
        {
          "internalType": "address",
          "name": "to",
          "type": "address"
        },
        {
          "internalType": "uint256",
          "name": "amount",
          "type": "uint256"
        }
      ],
      "name": "mint",
      "outputs": [],
      "stateMutability": "nonpayable",
      "type": "function"
    }
  ],
  "bytecode": "0x608060405234801561001057600080fd5b5061497c806100206000396000f3fe6080604052600436106101815760003560e01c806370a08231116100d157806395d89b411161008a578063b119490e11610064578063b119490e14610563578063d505accf1461058c578063dd62ed3e146105b5578063f2fde38b146105f257610181565b806395d89b41146104be578063a457c2d7146104e9578063a9059cbb1461052657610181565b806370a08231146103c2578063715018a6146103ff57806379cc6790146104165780637ecebe001461043f5780638456cb591461047c5780638da5cb5b1461049357610181565b80633659cfe61161013e57806340c10f191161011857806340c10f191461032957806342966c68146103525780634f1ef2861461037b5780635c975abb1461039757610181565b80633659cfe6146102ac57806339509351146102d55780633f4ba83a1461031257610181565b806306fdde0314610186578063095ea7b3146101b157806318160ddd146101ee57806323b872dd14610219578063313ce567146102565780633644e51514610281575b600080fd5b34801561019257600080fd5b5061019b61061b565b6040516101a89190613bea565b60405180910390f35b3480156101bd57600080fd5b506101d860048036038101906101d39190613537565b6106ad565b6040516101e59190613abb565b60405180910390f35b3480156101fa57600080fd5b506102036106cb565b6040516102109190613f0c565b60405180910390f35b34801561022557600080fd5b50610240600480360381019061023b91906133f6565b6106d5565b60405161024d9190613abb565b60405180910390f35b34801561026257600080fd5b5061026b6107cd565b6040516102789190613f27565b60405180910390f35b34801561028d57600080fd5b506102966107d6565b6040516102a39190613ad6565b60405180910390f35b3480156102b857600080fd5b506102d360048036038101906102ce9190613391565b6107e5565b005b3480156102e157600080fd5b506102fc60048036038101906102f79190613537565b61080c565b6040516103099190613abb565b60405180910390f35b34801561031e57600080fd5b506103276108b8565b005b34801561033557600080fd5b50610350600480360381019061034b9190613537565b61093e565b005b34801561035e57600080fd5b50610379600480360381019061037491906135f2565b6109c8565b005b610395600480360381019061039091906134e3565b6109dc565b005b3480156103a357600080fd5b506103ac6109f5565b6040516103b99190613abb565b60405180910390f35b3480156103ce57600080fd5b506103e960048036038101906103e49190613391565b610a0c565b6040516103f69190613f0c565b60405180910390f35b34801561040b57600080fd5b50610414610a55565b005b34801561042257600080fd5b5061043d60048036038101906104389190613537565b610add565b005b34801561044b57600080fd5b5061046660048036038101906104619190613391565b610b58565b6040516104739190613f0c565b60405180910390f35b34801561048857600080fd5b50610491610ba9565b005b34801561049f57600080fd5b506104a8610c2f565b6040516104b59190613aa0565b60405180910390f35b3480156104ca57600080fd5b506104d3610c59565b6040516104e09190613bea565b60405180910390f35b3480156104f557600080fd5b50610510600480360381019061050b9190613537565b610ceb565b60405161051d9190613abb565b60405180910390f35b34801561053257600080fd5b5061054d60048036038101906105489190613537565b610dd6565b60405161055a9190613abb565b60405180910390f35b34801561056f57600080fd5b5061058a60048036038101906105859190613573565b610df4565b005b34801561059857600080fd5b506105b360048036038101906105ae9190613445565b610f14565b005b3480156105c157600080fd5b506105dc60048036038101906105d791906133ba565b611039565b6040516105e99190613f0c565b60405180910390f35b3480156105fe57600080fd5b5061061960048036038101906106149190613391565b6110c0565b005b60606036805461062a90614131565b80601f016020809104026020016040519081016040528092919081815260200182805461065690614131565b80156106a35780601f10610678576101008083540402835291602001916106a3565b820191906000526020600020905b81548152906001019060200180831161068657829003601f168201915b5050505050905090565b60006106c16106ba6111b8565b84846111c0565b6001905092915050565b6000603554905090565b60006106e284848461138b565b6000603460008673ffffffffffffffffffffffffffffffffffffffff1673ffffffffffffffffffffffffffffffffffffffff168152602001908152602001600020600061072d6111b8565b73ffffffffffffffffffffffffffffffffffffffff1673ffffffffffffffffffffffffffffffffffffffff168152602001908152602001600020549050828110156107ad576040517f08c379a00000000000000000000000000000000000000000000000000000000081526004016107a490613dec565b60405180910390fd5b6107c1856107b96111b8565b8584036111c0565b60019150509392505050565b60006012905090565b60006107e061160f565b905090565b6107ee8161164f565b610809816040518060200160405280600081525060006116ce565b50565b60006108ae6108196111b8565b8484603460006108276111b8565b73ffffffffffffffffffffffffffffffffffffffff1673ffffffffffffffffffffffffffffffffffffffff16815260200190815260200160002060008873ffffffffffffffffffffffffffffffffffffffff1673ffffffffffffffffffffffffffffffffffffffff168152602001908152602001600020546108a99190614006565b6111c0565b6001905092915050565b6108c06111b8565b73ffffffffffffffffffffffffffffffffffffffff166108de610c2f565b73ffffffffffffffffffffffffffffffffffffffff1614610934576040517f08c379a000000000000000000000000000000000000000000000000000000000815260040161092b90613e0c565b60405180910390fd5b61093c61189f565b565b6109466111b8565b73ffffffffffffffffffffffffffffffffffffffff16610964610c2f565b73ffffffffffffffffffffffffffffffffffffffff16146109ba576040517f08c379a00000000000000000000000000000000000000000000000000000000081526004016109b190613e0c565b60405180910390fd5b6109c48282611941565b5050565b6109d96109d36111b8565b82611aa2565b50565b6109e58261164f565b6109f1828260016116ce565b5050565b6000609760009054906101000a900460ff16905090565b6000603360008373ffffffffffffffffffffffffffffffffffffffff1673ffffffffffffffffffffffffffffffffffffffff168152602001908152602001600020549050919050565b610a5d6111b8565b73ffffffffffffffffffffffffffffffffffffffff16610a7b610c2f565b73ffffffffffffffffffffffffffffffffffffffff1614610ad1576040517f08c379a0000000000000000000000000000000000000000000000000000000008152600401610ac890613e0c565b60405180910390fd5b610adb6000611c7b565b565b6000610af083610aeb6111b8565b611039565b905081811015610b35576040517f08c379a0000000000000000000000000000000000000000000000000000000008152600401610b2c90613e2c565b60405180910390fd5b610b4983610b416111b8565b8484036111c0565b610b538383611aa2565b505050565b6000610ba261012f60008473ffffffffffffffffffffffffffffffffffffffff1673ffffffffffffffffffffffffffffffffffffffff168152602001908152602001600020611d41565b9050919050565b610bb16111b8565b73ffffffffffffffffffffffffffffffffffffffff16610bcf610c2f565b73ffffffffffffffffffffffffffffffffffffffff1614610c25576040517f08c379a0000000000000000000000000000000000000000000000000000000008152600401610c1c90613e0c565b60405180910390fd5b610c2d611d4f565b565b600060c960009054906101000a900473ffffffffffffffffffffffffffffffffffffffff16905090565b606060378054610c6890614131565b80601f0160208091040260200160405190810160405280929190818152602001828054610c9490614131565b8015610ce15780601f10610cb657610100808354040283529160200191610ce1565b820191906000526020600020905b815481529060010190602001808311610cc457829003601f168201915b5050505050905090565b60008060346000610cfa6111b8565b73ffffffffffffffffffffffffffffffffffffffff1673ffffffffffffffffffffffffffffffffffffffff16815260200190815260200160002060008573ffffffffffffffffffffffffffffffffffffffff1673ffffffffffffffffffffffffffffffffffffffff16815260200190815260200160002054905082811015610db7576040517f08c379a0000000000000000000000000000000000000000000000000000000008152600401610dae90613ecc565b60405180910390fd5b610dcb610dc26111b8565b858584036111c0565b600191505092915050565b6000610dea610de36111b8565b848461138b565b6001905092915050565b600060019054906101000a900460ff1680610e1a575060008054906101000a900460ff16155b610e59576040517f08c379a0000000000000000000000000000000000000000000000000000000008152600401610e5090613d6c565b60405180910390fd5b60008060019054906101000a900460ff161590508015610ea9576001600060016101000a81548160ff02191690831515021790555060016000806101000a81548160ff0219169083151502179055505b610eb38484611df2565b610ebb611edf565b610ec3611fc8565b610ecb6120b1565b610ed48461219a565b610edc6122c4565b610eed610ee76111b8565b83611941565b8015610f0e5760008060016101000a81548160ff0219169083151502179055505b50505050565b83421115610f57576040517f08c379a0000000000000000000000000000000000000000000000000000000008152600401610f4e90613cec565b60405180910390fd5b600061013054888888610f698c6123ad565b89604051602001610f7f96959493929190613af1565b6040516020818303038152906040528051906020012090506000610fa28261240c565b90506000610fb282878787612426565b90508973ffffffffffffffffffffffffffffffffffffffff168173ffffffffffffffffffffffffffffffffffffffff1614611022576040517f08c379a000000000000000000000000000000000000000000000000000000000815260040161101990613dac565b60405180910390fd5b61102d8a8a8a6111c0565b50505050505050505050565b6000603460008473ffffffffffffffffffffffffffffffffffffffff1673ffffffffffffffffffffffffffffffffffffffff16815260200190815260200160002060008373ffffffffffffffffffffffffffffffffffffffff1673ffffffffffffffffffffffffffffffffffffffff16815260200190815260200160002054905092915050565b6110c86111b8565b73ffffffffffffffffffffffffffffffffffffffff166110e6610c2f565b73ffffffffffffffffffffffffffffffffffffffff161461113c576040517f08c379a000000000000000000000000000000000000000000000000000000000815260040161113390613e0c565b60405180910390fd5b600073ffffffffffffffffffffffffffffffffffffffff168173ffffffffffffffffffffffffffffffffffffffff1614156111ac576040517f08c379a00000000000000000000000000000000000000000000000000000000081526004016111a390613cac565b60405180910390fd5b6111b581611c7b565b50565b600033905090565b600073ffffffffffffffffffffffffffffffffffffffff168373ffffffffffffffffffffffffffffffffffffffff161415611230576040517f08c379a000000000000000000000000000000000000000000000000000000000815260040161122790613eac565b60405180910390fd5b600073ffffffffffffffffffffffffffffffffffffffff168273ffffffffffffffffffffffffffffffffffffffff1614156112a0576040517f08c379a000000000000000000000000000000000000000000000000000000000815260040161129790613ccc565b60405180910390fd5b80603460008573ffffffffffffffffffffffffffffffffffffffff1673ffffffffffffffffffffffffffffffffffffffff16815260200190815260200160002060008473ffffffffffffffffffffffffffffffffffffffff1673ffffffffffffffffffffffffffffffffffffffff168152602001908152602001600020819055508173ffffffffffffffffffffffffffffffffffffffff168373ffffffffffffffffffffffffffffffffffffffff167f8c5be1e5ebec7d5bd14f71427d1e84f3dd0314c0f7b2291e5b200ac8c7c3b9258360405161137e9190613f0c565b60405180910390a3505050565b600073ffffffffffffffffffffffffffffffffffffffff168373ffffffffffffffffffffffffffffffffffffffff1614156113fb576040517f08c379a00000000000000000000000000000000000000000000000000000000081526004016113f290613e8c565b60405180910390fd5b600073ffffffffffffffffffffffffffffffffffffffff168273ffffffffffffffffffffffffffffffffffffffff16141561146b576040517f08c379a000000000000000000000000000000000000000000000000000000000815260040161146290613c2c565b60405180910390fd5b6114768383836125b1565b6000603360008573ffffffffffffffffffffffffffffffffffffffff1673ffffffffffffffffffffffffffffffffffffffff168152602001908152602001600020549050818110156114fd576040517f08c379a00000000000000000000000000000000000000000000000000000000081526004016114f490613d0c565b60405180910390fd5b818103603360008673ffffffffffffffffffffffffffffffffffffffff1673ffffffffffffffffffffffffffffffffffffffff1681526020019081526020016000208190555081603360008573ffffffffffffffffffffffffffffffffffffffff1673ffffffffffffffffffffffffffffffffffffffff16815260200190815260200160002060008282546115929190614006565b925050819055508273ffffffffffffffffffffffffffffffffffffffff168473ffffffffffffffffffffffffffffffffffffffff167fddf252ad1be2c89b69c2b068fc378daa952ba7f163c4a11628f55a4df523b3ef846040516115f69190613f0c565b60405180910390a3611609848484612609565b50505050565b600061164a7f8b73c3c69bb8fe3d512ecc4cf759cc79239f7b179b0ffacaa9a75d522b39400f61163d61260e565b611645612618565b612622565b905090565b6116576111b8565b73ffffffffffffffffffffffffffffffffffffffff16611675610c2f565b73ffffffffffffffffffffffffffffffffffffffff16146116cb576040517f08c379a00000000000000000000000000000000000000000000000000000000081526004016116c290613e0c565b60405180910390fd5b50565b60006116d861265c565b90506116e3846126b3565b6000835111806116f05750815b15611701576116ff848461276c565b505b600061172f7f4910fdfa16fed3260ed0e7147f7cc6da11a60208b5b9406d12a635614ffd914360001b612850565b90508060000160009054906101000a900460ff166118985760018160000160006101000a81548160ff0219169083151502179055506117fb85836040516024016117799190613aa0565b6040516020818303038152906040527f3659cfe6000000000000000000000000000000000000000000000000000000007bffffffffffffffffffffffffffffffffffffffffffffffffffffffff19166020820180517bffffffffffffffffffffffffffffffffffffffffffffffffffffffff838183161783525050505061276c565b5060008160000160006101000a81548160ff02191690831515021790555061182161265c565b73ffffffffffffffffffffffffffffffffffffffff168273ffffffffffffffffffffffffffffffffffffffff161461188e576040517f08c379a000000000000000000000000000000000000000000000000000000000815260040161188590613c8c565b60405180910390fd5b6118978561285a565b5b5050505050565b6118a76109f5565b6118e6576040517f08c379a00000000000000000000000000000000000000000000000000000000081526004016118dd90613c4c565b60405180910390fd5b6000609760006101000a81548160ff0219169083151502179055507f5db9ee0a495bf2e6ff9c91a7834c1ba4fdd244a5e8aa4e537bd38aeae4b073aa61192a6111b8565b6040516119379190613aa0565b60405180910390a1565b600073ffffffffffffffffffffffffffffffffffffffff168273ffffffffffffffffffffffffffffffffffffffff1614156119b1576040517f08c379a00000000000000000000000000000000000000000000000000000000081526004016119a890613eec565b60405180910390fd5b6119bd600083836125b1565b80603560008282546119cf9190614006565b9250508190555080603360008473ffffffffffffffffffffffffffffffffffffffff1673ffffffffffffffffffffffffffffffffffffffff1681526020019081526020016000206000828254611a259190614006565b925050819055508173ffffffffffffffffffffffffffffffffffffffff16600073ffffffffffffffffffffffffffffffffffffffff167fddf252ad1be2c89b69c2b068fc378daa952ba7f163c4a11628f55a4df523b3ef83604051611a8a9190613f0c565b60405180910390a3611a9e60008383612609565b5050565b600073ffffffffffffffffffffffffffffffffffffffff168273ffffffffffffffffffffffffffffffffffffffff161415611b12576040517f08c379a0000000000000000000000000000000000000000000000000000000008152600401611b0990613e4c565b60405180910390fd5b611b1e826000836125b1565b6000603360008473ffffffffffffffffffffffffffffffffffffffff1673ffffffffffffffffffffffffffffffffffffffff16815260200190815260200160002054905081811015611ba5576040517f08c379a0000000000000000000000000000000000000000000000000000000008152600401611b9c90613c6c565b60405180910390fd5b818103603360008573ffffffffffffffffffffffffffffffffffffffff1673ffffffffffffffffffffffffffffffffffffffff168152602001908152602001600020819055508160356000828254611bfd919061405c565b92505081905550600073ffffffffffffffffffffffffffffffffffffffff168373ffffffffffffffffffffffffffffffffffffffff167fddf252ad1be2c89b69c2b068fc378daa952ba7f163c4a11628f55a4df523b3ef84604051611c629190613f0c565b60405180910390a3611c7683600084612609565b505050565b600060c960009054906101000a900473ffffffffffffffffffffffffffffffffffffffff1690508160c960006101000a81548173ffffffffffffffffffffffffffffffffffffffff021916908373ffffffffffffffffffffffffffffffffffffffff1602179055508173ffffffffffffffffffffffffffffffffffffffff168173ffffffffffffffffffffffffffffffffffffffff167f8be0079c531659141344cd1fd0a4f28419497f9722a3daafe3b4186f6b6457e060405160405180910390a35050565b600081600001549050919050565b611d576109f5565b15611d97576040517f08c379a0000000000000000000000000000000000000000000000000000000008152600401611d8e90613d4c565b60405180910390fd5b6001609760006101000a81548160ff0219169083151502179055507f62e78cea01bee320cd4e420270b5ea74000d11b0c9f74754ebdbfc544b05a258611ddb6111b8565b604051611de89190613aa0565b60405180910390a1565b600060019054906101000a900460ff1680611e18575060008054906101000a900460ff16155b611e57576040517f08c379a0000000000000000000000000000000000000000000000000000000008152600401611e4e90613d6c565b60405180910390fd5b60008060019054906101000a900460ff161590508015611ea7576001600060016101000a81548160ff02191690831515021790555060016000806101000a81548160ff0219169083151502179055505b611eaf6128a9565b611eb98383612982565b8015611eda5760008060016101000a81548160ff0219169083151502179055505b505050565b600060019054906101000a900460ff1680611f05575060008054906101000a900460ff16155b611f44576040517f08c379a0000000000000000000000000000000000000000000000000000000008152600401611f3b90613d6c565b60405180910390fd5b60008060019054906101000a900460ff161590508015611f94576001600060016101000a81548160ff02191690831515021790555060016000806101000a81548160ff0219169083151502179055505b611f9c6128a9565b611fa4612a8b565b8015611fc55760008060016101000a81548160ff0219169083151502179055505b50565b600060019054906101000a900460ff1680611fee575060008054906101000a900460ff16155b61202d576040517f08c379a000000000000000000000000000000000000000000000000000000000815260040161202490613d6c565b60405180910390fd5b60008060019054906101000a900460ff16159050801561207d576001600060016101000a81548160ff02191690831515021790555060016000806101000a81548160ff0219169083151502179055505b6120856128a9565b61208d612b64565b80156120ae5760008060016101000a81548160ff0219169083151502179055505b50565b600060019054906101000a900460ff16806120d7575060008054906101000a900460ff16155b612116576040517f08c379a000000000000000000000000000000000000000000000000000000000815260040161210d90613d6c565b60405180910390fd5b60008060019054906101000a900460ff161590508015612166576001600060016101000a81548160ff02191690831515021790555060016000806101000a81548160ff0219169083151502179055505b61216e6128a9565b612176612c58565b80156121975760008060016101000a81548160ff0219169083151502179055505b50565b600060019054906101000a900460ff16806121c0575060008054906101000a900460ff16155b6121ff576040517f08c379a00000000000000000000000000000000000000000000000000000000081526004016121f690613d6c565b60405180910390fd5b60008060019054906101000a900460ff16159050801561224f576001600060016101000a81548160ff02191690831515021790555060016000806101000a81548160ff0219169083151502179055505b6122576128a9565b612296826040518060400160405280600181526020017f3100000000000000000000000000000000000000000000000000000000000000815250612d41565b61229f82612e44565b80156122c05760008060016101000a81548160ff0219169083151502179055505b5050565b600060019054906101000a900460ff16806122ea575060008054906101000a900460ff16155b612329576040517f08c379a000000000000000000000000000000000000000000000000000000000815260040161232090613d6c565b60405180910390fd5b60008060019054906101000a900460ff161590508015612379576001600060016101000a81548160ff02191690831515021790555060016000806101000a81548160ff0219169083151502179055505b612381612f46565b61238961301f565b80156123aa5760008060016101000a81548160ff0219169083151502179055505b50565b60008061012f60008473ffffffffffffffffffffffffffffffffffffffff1673ffffffffffffffffffffffffffffffffffffffff16815260200190815260200160002090506123fb81611d41565b9150612406816130f8565b50919050565b600061241f61241961160f565b8361310e565b9050919050565b60007f7fffffffffffffffffffffffffffffff5d576e7357a4501ddfe92f46681b20a08260001c111561248e576040517f08c379a000000000000000000000000000000000000000000000000000000000815260040161248590613d2c565b60405180910390fd5b601b8460ff1614806124a35750601c8460ff16145b6124e2576040517f08c379a00000000000000000000000000000000000000000000000000000000081526004016124d990613d8c565b60405180910390fd5b6000600186868686604051600081526020016040526040516125079493929190613ba5565b6020604051602081039080840390855afa158015612529573d6000803e3d6000fd5b505050602060405103519050600073ffffffffffffffffffffffffffffffffffffffff168173ffffffffffffffffffffffffffffffffffffffff1614156125a5576040517f08c379a000000000000000000000000000000000000000000000000000000000815260040161259c90613c0c565b60405180910390fd5b80915050949350505050565b6125b96109f5565b156125f9576040517f08c379a00000000000000000000000000000000000000000000000000000000081526004016125f090613d4c565b60405180910390fd5b612604838383613141565b505050565b505050565b600060fb54905090565b600060fc54905090565b6000838383463060405160200161263d959493929190613b52565b6040516020818303038152906040528051906020012090509392505050565b600061268a7f360894a13ba1a3210667c828492db98dca3e2076cc3735a920a3ca505d382bbc60001b613146565b60000160009054906101000a900473ffffffffffffffffffffffffffffffffffffffff16905090565b6126bc81613150565b6126fb576040517f08c379a00000000000000000000000000000000000000000000000000000000081526004016126f290613dcc565b60405180910390fd5b806127287f360894a13ba1a3210667c828492db98dca3e2076cc3735a920a3ca505d382bbc60001b613146565b60000160006101000a81548173ffffffffffffffffffffffffffffffffffffffff021916908373ffffffffffffffffffffffffffffffffffffffff16021790555050565b606061277783613150565b6127b6576040517f08c379a00000000000000000000000000000000000000000000000000000000081526004016127ad90613e6c565b60405180910390fd5b6000808473ffffffffffffffffffffffffffffffffffffffff16846040516127de9190613a52565b600060405180830381855af49150503d8060008114612819576040519150601f19603f3d011682016040523d82523d6000602084013e61281e565b606091505b5091509150612846828260405180606001604052806027815260200161492060279139613163565b9250505092915050565b6000819050919050565b612863816126b3565b8073ffffffffffffffffffffffffffffffffffffffff167fbc7cd75a20ee27fd9adebab32041f755214dbc6bffa90cc0225b39da2e5c2d3b60405160405180910390a250565b600060019054906101000a900460ff16806128cf575060008054906101000a900460ff16155b61290e576040517f08c379a000000000000000000000000000000000000000000000000000000000815260040161290590613d6c565b60405180910390fd5b60008060019054906101000a900460ff16159050801561295e576001600060016101000a81548160ff02191690831515021790555060016000806101000a81548160ff0219169083151502179055505b801561297f5760008060016101000a81548160ff0219169083151502179055505b50565b600060019054906101000a900460ff16806129a8575060008054906101000a900460ff16155b6129e7576040517f08c379a00000000000000000000000000000000000000000000000000000000081526004016129de90613d6c565b60405180910390fd5b60008060019054906101000a900460ff161590508015612a37576001600060016101000a81548160ff02191690831515021790555060016000806101000a81548160ff0219169083151502179055505b8260369080519060200190612a4d9291906131ca565b508160379080519060200190612a649291906131ca565b508015612a865760008060016101000a81548160ff0219169083151502179055505b505050565b600060019054906101000a900460ff1680612ab1575060008054906101000a900460ff16155b612af0576040517f08c379a0000000000000000000000000000000000000000000000000000000008152600401612ae790613d6c565b60405180910390fd5b60008060019054906101000a900460ff161590508015612b40576001600060016101000a81548160ff02191690831515021790555060016000806101000a81548160ff0219169083151502179055505b8015612b615760008060016101000a81548160ff0219169083151502179055505b50565b600060019054906101000a900460ff1680612b8a575060008054906101000a900460ff16155b612bc9576040517f08c379a0000000000000000000000000000000000000000000000000000000008152600401612bc090613d6c565b60405180910390fd5b60008060019054906101000a900460ff161590508015612c19576001600060016101000a81548160ff02191690831515021790555060016000806101000a81548160ff0219169083151502179055505b6000609760006101000a81548160ff0219169083151502179055508015612c555760008060016101000a81548160ff0219169083151502179055505b50565b600060019054906101000a900460ff1680612c7e575060008054906101000a900460ff16155b612cbd576040517f08c379a0000000000000000000000000000000000000000000000000000000008152600401612cb490613d6c565b60405180910390fd5b60008060019054906101000a900460ff161590508015612d0d576001600060016101000a81548160ff02191690831515021790555060016000806101000a81548160ff0219169083151502179055505b612d1d612d186111b8565b611c7b565b8015612d3e5760008060016101000a81548160ff0219169083151502179055505b50565b600060019054906101000a900460ff1680612d67575060008054906101000a900460ff16155b612da6576040517f08c379a0000000000000000000000000000000000000000000000000000000008152600401612d9d90613d6c565b60405180910390fd5b60008060019054906101000a900460ff161590508015612df6576001600060016101000a81548160ff02191690831515021790555060016000806101000a81548160ff0219169083151502179055505b6000838051906020012090506000838051906020012090508160fb819055508060fc8190555050508015612e3f5760008060016101000a81548160ff0219169083151502179055505b505050565b600060019054906101000a900460ff1680612e6a575060008054906101000a900460ff16155b612ea9576040517f08c379a0000000000000000000000000000000000000000000000000000000008152600401612ea090613d6c565b60405180910390fd5b60008060019054906101000a900460ff161590508015612ef9576001600060016101000a81548160ff02191690831515021790555060016000806101000a81548160ff0219169083151502179055505b7f6e71edae12b1b97f4d1f60370fef10105fa2faae0126114a169c64845d6126c9610130819055508015612f425760008060016101000a81548160ff0219169083151502179055505b5050565b600060019054906101000a900460ff1680612f6c575060008054906101000a900460ff16155b612fab576040517f08c379a0000000000000000000000000000000000000000000000000000000008152600401612fa290613d6c565b60405180910390fd5b60008060019054906101000a900460ff161590508015612ffb576001600060016101000a81548160ff02191690831515021790555060016000806101000a81548160ff0219169083151502179055505b801561301c5760008060016101000a81548160ff0219169083151502179055505b50565b600060019054906101000a900460ff1680613045575060008054906101000a900460ff16155b613084576040517f08c379a000000000000000000000000000000000000000000000000000000000815260040161307b90613d6c565b60405180910390fd5b60008060019054906101000a900460ff1615905080156130d4576001600060016101000a81548160ff02191690831515021790555060016000806101000a81548160ff0219169083151502179055505b80156130f55760008060016101000a81548160ff0219169083151502179055505b50565b6001816000016000828254019250508190555050565b60008282604051602001613123929190613a69565b60405160208183030381529060405280519060200120905092915050565b505050565b6000819050919050565b600080823b905060008111915050919050565b60608315613173578290506131c3565b6000835111156131865782518084602001fd5b816040517f08c379a00000000000000000000000000000000000000000000000000000000081526004016131ba9190613bea565b60405180910390fd5b9392505050565b8280546131d690614131565b90600052602060002090601f0160209004810192826131f8576000855561323f565b82601f1061321157805160ff191683800117855561323f565b8280016001018555821561323f579182015b8281111561323e578251825591602001919060010190613223565b5b50905061324c9190613250565b5090565b5b80821115613269576000816000905550600101613251565b5090565b600061328061327b84613f67565b613f42565b90508281526020810184848401111561329857600080fd5b6132a38482856140ef565b509392505050565b60006132be6132b984613f98565b613f42565b9050828152602081018484840111156132d657600080fd5b6132e18482856140ef565b509392505050565b6000813590506132f8816148c3565b92915050565b60008135905061330d816148da565b92915050565b600082601f83011261332457600080fd5b813561333484826020860161326d565b91505092915050565b600082601f83011261334e57600080fd5b813561335e8482602086016132ab565b91505092915050565b600081359050613376816148f1565b92915050565b60008135905061338b81614908565b92915050565b6000602082840312156133a357600080fd5b60006133b1848285016132e9565b91505092915050565b600080604083850312156133cd57600080fd5b60006133db858286016132e9565b92505060206133ec858286016132e9565b9150509250929050565b60008060006060848603121561340b57600080fd5b6000613419868287016132e9565b935050602061342a868287016132e9565b925050604061343b86828701613367565b9150509250925092565b600080600080600080600060e0888a03121561346057600080fd5b600061346e8a828b016132e9565b975050602061347f8a828b016132e9565b96505060406134908a828b01613367565b95505060606134a18a828b01613367565b94505060806134b28a828b0161337c565b93505060a06134c38a828b016132fe565b92505060c06134d48a828b016132fe565b91505092959891949750929550565b600080604083850312156134f657600080fd5b6000613504858286016132e9565b925050602083013567ffffffffffffffff81111561352157600080fd5b61352d85828601613313565b9150509250929050565b6000806040838503121561354a57600080fd5b6000613558858286016132e9565b925050602061356985828601613367565b9150509250929050565b60008060006060848603121561358857600080fd5b600084013567ffffffffffffffff8111156135a257600080fd5b6135ae8682870161333d565b935050602084013567ffffffffffffffff8111156135cb57600080fd5b6135d78682870161333d565b92505060406135e886828701613367565b9150509250925092565b60006020828403121561360457600080fd5b600061361284828501613367565b91505092915050565b61362481614090565b82525050565b613633816140a2565b82525050565b613642816140ae565b82525050565b613659613654826140ae565b614194565b82525050565b600061366a82613fc9565b6136748185613fdf565b93506136848185602086016140fe565b80840191505092915050565b600061369b82613fd4565b6136a58185613fea565b93506136b58185602086016140fe565b6136be8161422b565b840191505092915050565b60006136d6601883613fea565b91506136e18261423c565b602082019050919050565b60006136f9602383613fea565b915061370482614265565b604082019050919050565b600061371c601483613fea565b9150613727826142b4565b602082019050919050565b600061373f602283613fea565b915061374a826142dd565b604082019050919050565b6000613762602f83613fea565b915061376d8261432c565b604082019050919050565b6000613785602683613fea565b91506137908261437b565b604082019050919050565b60006137a8602283613fea565b91506137b3826143ca565b604082019050919050565b60006137cb600283613ffb565b91506137d682614419565b600282019050919050565b60006137ee601d83613fea565b91506137f982614442565b602082019050919050565b6000613811602683613fea565b915061381c8261446b565b604082019050919050565b6000613834602283613fea565b915061383f826144ba565b604082019050919050565b6000613857601083613fea565b915061386282614509565b602082019050919050565b600061387a602e83613fea565b915061388582614532565b604082019050919050565b600061389d602283613fea565b91506138a882614581565b604082019050919050565b60006138c0601e83613fea565b91506138cb826145d0565b602082019050919050565b60006138e3602d83613fea565b91506138ee826145f9565b604082019050919050565b6000613906602883613fea565b915061391182614648565b604082019050919050565b6000613929602083613fea565b915061393482614697565b602082019050919050565b600061394c602483613fea565b9150613957826146c0565b604082019050919050565b600061396f602183613fea565b915061397a8261470f565b604082019050919050565b6000613992602683613fea565b915061399d8261475e565b604082019050919050565b60006139b5602583613fea565b91506139c0826147ad565b604082019050919050565b60006139d8602483613fea565b91506139e3826147fc565b604082019050919050565b60006139fb602583613fea565b9150613a068261484b565b604082019050919050565b6000613a1e601f83613fea565b9150613a298261489a565b602082019050919050565b613a3d816140d8565b82525050565b613a4c816140e2565b82525050565b6000613a5e828461365f565b915081905092915050565b6000613a74826137be565b9150613a808285613648565b602082019150613a908284613648565b6020820191508190509392505050565b6000602082019050613ab5600083018461361b565b92915050565b6000602082019050613ad0600083018461362a565b92915050565b6000602082019050613aeb6000830184613639565b92915050565b600060c082019050613b066000830189613639565b613b13602083018861361b565b613b20604083018761361b565b613b2d6060830186613a34565b613b3a6080830185613a34565b613b4760a0830184613a34565b979650505050505050565b600060a082019050613b676000830188613639565b613b746020830187613639565b613b816040830186613639565b613b8e6060830185613a34565b613b9b608083018461361b565b9695505050505050565b6000608082019050613bba6000830187613639565b613bc76020830186613a43565b613bd46040830185613639565b613be16060830184613639565b95945050505050565b60006020820190508181036000830152613c048184613690565b905092915050565b60006020820190508181036000830152613c25816136c9565b9050919050565b60006020820190508181036000830152613c45816136ec565b9050919050565b60006020820190508181036000830152613c658161370f565b9050919050565b60006020820190508181036000830152613c8581613732565b9050919050565b60006020820190508181036000830152613ca581613755565b9050919050565b60006020820190508181036000830152613cc581613778565b9050919050565b60006020820190508181036000830152613ce58161379b565b9050919050565b60006020820190508181036000830152613d05816137e1565b9050919050565b60006020820190508181036000830152613d2581613804565b9050919050565b60006020820190508181036000830152613d4581613827565b9050919050565b60006020820190508181036000830152613d658161384a565b9050919050565b60006020820190508181036000830152613d858161386d565b9050919050565b60006020820190508181036000830152613da581613890565b9050919050565b60006020820190508181036000830152613dc5816138b3565b9050919050565b60006020820190508181036000830152613de5816138d6565b9050919050565b60006020820190508181036000830152613e05816138f9565b9050919050565b60006020820190508181036000830152613e258161391c565b9050919050565b60006020820190508181036000830152613e458161393f565b9050919050565b60006020820190508181036000830152613e6581613962565b9050919050565b60006020820190508181036000830152613e8581613985565b9050919050565b60006020820190508181036000830152613ea5816139a8565b9050919050565b60006020820190508181036000830152613ec5816139cb565b9050919050565b60006020820190508181036000830152613ee5816139ee565b9050919050565b60006020820190508181036000830152613f0581613a11565b9050919050565b6000602082019050613f216000830184613a34565b92915050565b6000602082019050613f3c6000830184613a43565b92915050565b6000613f4c613f5d565b9050613f588282614163565b919050565b6000604051905090565b600067ffffffffffffffff821115613f8257613f816141fc565b5b613f8b8261422b565b9050602081019050919050565b600067ffffffffffffffff821115613fb357613fb26141fc565b5b613fbc8261422b565b9050602081019050919050565b600081519050919050565b600081519050919050565b600081905092915050565b600082825260208201905092915050565b600081905092915050565b6000614011826140d8565b915061401c836140d8565b9250827fffffffffffffffffffffffffffffffffffffffffffffffffffffffffffffffff038211156140515761405061419e565b5b828201905092915050565b6000614067826140d8565b9150614072836140d8565b9250828210156140855761408461419e565b5b828203905092915050565b600061409b826140b8565b9050919050565b60008115159050919050565b6000819050919050565b600073ffffffffffffffffffffffffffffffffffffffff82169050919050565b6000819050919050565b600060ff82169050919050565b82818337600083830152505050565b60005b8381101561411c578082015181840152602081019050614101565b8381111561412b576000848401525b50505050565b6000600282049050600182168061414957607f821691505b6020821081141561415d5761415c6141cd565b5b50919050565b61416c8261422b565b810181811067ffffffffffffffff8211171561418b5761418a6141fc565b5b80604052505050565b6000819050919050565b7f4e487b7100000000000000000000000000000000000000000000000000000000600052601160045260246000fd5b7f4e487b7100000000000000000000000000000000000000000000000000000000600052602260045260246000fd5b7f4e487b7100000000000000000000000000000000000000000000000000000000600052604160045260246000fd5b6000601f19601f8301169050919050565b7f45434453413a20696e76616c6964207369676e61747572650000000000000000600082015250565b7f45524332303a207472616e7366657220746f20746865207a65726f206164647260008201527f6573730000000000000000000000000000000000000000000000000000000000602082015250565b7f5061757361626c653a206e6f7420706175736564000000000000000000000000600082015250565b7f45524332303a206275726e20616d6f756e7420657863656564732062616c616e60008201527f6365000000000000000000000000000000000000000000000000000000000000602082015250565b7f45524331393637557067726164653a207570677261646520627265616b73206660008201527f7572746865722075706772616465730000000000000000000000000000000000602082015250565b7f4f776e61626c653a206e6577206f776e657220697320746865207a65726f206160008201527f6464726573730000000000000000000000000000000000000000000000000000602082015250565b7f45524332303a20617070726f766520746f20746865207a65726f20616464726560008201527f7373000000000000000000000000000000000000000000000000000000000000602082015250565b7f1901000000000000000000000000000000000000000000000000000000000000600082015250565b7f45524332305065726d69743a206578706972656420646561646c696e65000000600082015250565b7f45524332303a207472616e7366657220616d6f756e742065786365656473206260008201527f616c616e63650000000000000000000000000000000000000000000000000000602082015250565b7f45434453413a20696e76616c6964207369676e6174757265202773272076616c60008201527f7565000000000000000000000000000000000000000000000000000000000000602082015250565b7f5061757361626c653a2070617573656400000000000000000000000000000000600082015250565b7f496e697469616c697a61626c653a20636f6e747261637420697320616c72656160008201527f647920696e697469616c697a6564000000000000000000000000000000000000602082015250565b7f45434453413a20696e76616c6964207369676e6174757265202776272076616c60008201527f7565000000000000000000000000000000000000000000000000000000000000602082015250565b7f45524332305065726d69743a20696e76616c6964207369676e61747572650000600082015250565b7f455243313936373a206e657720696d706c656d656e746174696f6e206973206e60008201527f6f74206120636f6e747261637400000000000000000000000000000000000000602082015250565b7f45524332303a207472616e7366657220616d6f756e742065786365656473206160008201527f6c6c6f77616e6365000000000000000000000000000000000000000000000000602082015250565b7f4f776e61626c653a2063616c6c6572206973206e6f7420746865206f776e6572600082015250565b7f45524332303a206275726e20616d6f756e74206578636565647320616c6c6f7760008201527f616e636500000000000000000000000000000000000000000000000000000000602082015250565b7f45524332303a206275726e2066726f6d20746865207a65726f2061646472657360008201527f7300000000000000000000000000000000000000000000000000000000000000602082015250565b7f416464726573733a2064656c65676174652063616c6c20746f206e6f6e2d636f60008201527f6e74726163740000000000000000000000000000000000000000000000000000602082015250565b7f45524332303a207472616e736665722066726f6d20746865207a65726f20616460008201527f6472657373000000000000000000000000000000000000000000000000000000602082015250565b7f45524332303a20617070726f76652066726f6d20746865207a65726f2061646460008201527f7265737300000000000000000000000000000000000000000000000000000000602082015250565b7f45524332303a2064656372656173656420616c6c6f77616e63652062656c6f7760008201527f207a65726f000000000000000000000000000000000000000000000000000000602082015250565b7f45524332303a206d696e7420746f20746865207a65726f206164647265737300600082015250565b6148cc81614090565b81146148d757600080fd5b50565b6148e3816140ae565b81146148ee57600080fd5b50565b6148fa816140d8565b811461490557600080fd5b50565b614911816140e2565b811461491c57600080fd5b5056fe416464726573733a206c6f772d6c6576656c2064656c65676174652063616c6c206661696c6564a2646970667358221220a9bb647c7f61a9b85d56f0d12facfb296d05081889e7782a9f15d5a26d397d4564736f6c63430008020033",
  "immutableReferences": {},
  "source": "// SPDX-License-Identifier: MIT\npragma solidity ^0.8.2;\n\nimport \"@openzeppelin/contracts-upgradeable/token/ERC20/ERC20Upgradeable.sol\";\nimport \"@openzeppelin/contracts-upgradeable/token/ERC20/extensions/ERC20BurnableUpgradeable.sol\";\nimport \"@openzeppelin/contracts-upgradeable/security/PausableUpgradeable.sol\";\nimport \"@openzeppelin/contracts-upgradeable/access/OwnableUpgradeable.sol\";\nimport \"@openzeppelin/contracts-upgradeable/token/ERC20/extensions/draft-ERC20PermitUpgradeable.sol\";\nimport \"@openzeppelin/contracts-upgradeable/proxy/utils/Initializable.sol\";\nimport \"@openzeppelin/contracts-upgradeable/proxy/utils/UUPSUpgradeable.sol\";\n\ncontract Token is Initializable, ERC20Upgradeable, ERC20BurnableUpgradeable, PausableUpgradeable, OwnableUpgradeable, ERC20PermitUpgradeable, UUPSUpgradeable {\n    function initialize(string memory name, string memory symbol, uint256 initialSupply) public virtual initializer {\n        __ERC20_init(name, symbol);\n        __ERC20Burnable_init();\n        __Pausable_init();\n        __Ownable_init();\n        __ERC20Permit_init(name);\n        __UUPSUpgradeable_init();\n        _mint(_msgSender(), initialSupply);\n        //_mint(msg.sender, 100 * 10 ** decimals());\n    }\n\n    function pause() public onlyOwner {\n        _pause();\n    }\n\n    function unpause() public onlyOwner {\n        _unpause();\n    }\n\n    function mint(address to, uint256 amount) public onlyOwner {\n        _mint(to, amount);\n    }\n\n    function _beforeTokenTransfer(address from, address to, uint256 amount)\n        internal\n        whenNotPaused\n        override\n    {\n        super._beforeTokenTransfer(from, to, amount);\n    }\n\n    function _authorizeUpgrade(address newImplementation)\n        internal\n        onlyOwner\n        override\n    {}\n}\n",
  "sourcePath": "/home/dfwplay/juicyswap/juicyswap-master/src/contracts/Token.sol",
  "compiler": {
    "name": "solc",
    "version": "0.8.2+commit.661d1103.Emscripten.clang"
  },
  "schemaVersion": "3.4.2",
  "updatedAt": "2021-08-18T18:41:07.519Z",
  "networkType": "ethereum",
  "devdoc": {
    "kind": "dev",
    "methods": {
      "DOMAIN_SEPARATOR()": {
        "details": "See {IERC20Permit-DOMAIN_SEPARATOR}."
      },
      "allowance(address,address)": {
        "details": "See {IERC20-allowance}."
      },
      "approve(address,uint256)": {
        "details": "See {IERC20-approve}. Requirements: - `spender` cannot be the zero address."
      },
      "balanceOf(address)": {
        "details": "See {IERC20-balanceOf}."
      },
      "burn(uint256)": {
        "details": "Destroys `amount` tokens from the caller. See {ERC20-_burn}."
      },
      "burnFrom(address,uint256)": {
        "details": "Destroys `amount` tokens from `account`, deducting from the caller's allowance. See {ERC20-_burn} and {ERC20-allowance}. Requirements: - the caller must have allowance for ``accounts``'s tokens of at least `amount`."
      },
      "decimals()": {
        "details": "Returns the number of decimals used to get its user representation. For example, if `decimals` equals `2`, a balance of `505` tokens should be displayed to a user as `5,05` (`505 / 10 ** 2`). Tokens usually opt for a value of 18, imitating the relationship between Ether and Wei. This is the value {ERC20} uses, unless this function is overridden; NOTE: This information is only used for _display_ purposes: it in no way affects any of the arithmetic of the contract, including {IERC20-balanceOf} and {IERC20-transfer}."
      },
      "decreaseAllowance(address,uint256)": {
        "details": "Atomically decreases the allowance granted to `spender` by the caller. This is an alternative to {approve} that can be used as a mitigation for problems described in {IERC20-approve}. Emits an {Approval} event indicating the updated allowance. Requirements: - `spender` cannot be the zero address. - `spender` must have allowance for the caller of at least `subtractedValue`."
      },
      "increaseAllowance(address,uint256)": {
        "details": "Atomically increases the allowance granted to `spender` by the caller. This is an alternative to {approve} that can be used as a mitigation for problems described in {IERC20-approve}. Emits an {Approval} event indicating the updated allowance. Requirements: - `spender` cannot be the zero address."
      },
      "name()": {
        "details": "Returns the name of the token."
      },
      "nonces(address)": {
        "details": "See {IERC20Permit-nonces}."
      },
      "owner()": {
        "details": "Returns the address of the current owner."
      },
      "paused()": {
        "details": "Returns true if the contract is paused, and false otherwise."
      },
      "permit(address,address,uint256,uint256,uint8,bytes32,bytes32)": {
        "details": "See {IERC20Permit-permit}."
      },
      "renounceOwnership()": {
        "details": "Leaves the contract without owner. It will not be possible to call `onlyOwner` functions anymore. Can only be called by the current owner. NOTE: Renouncing ownership will leave the contract without an owner, thereby removing any functionality that is only available to the owner."
      },
      "symbol()": {
        "details": "Returns the symbol of the token, usually a shorter version of the name."
      },
      "totalSupply()": {
        "details": "See {IERC20-totalSupply}."
      },
      "transfer(address,uint256)": {
        "details": "See {IERC20-transfer}. Requirements: - `recipient` cannot be the zero address. - the caller must have a balance of at least `amount`."
      },
      "transferFrom(address,address,uint256)": {
        "details": "See {IERC20-transferFrom}. Emits an {Approval} event indicating the updated allowance. This is not required by the EIP. See the note at the beginning of {ERC20}. Requirements: - `sender` and `recipient` cannot be the zero address. - `sender` must have a balance of at least `amount`. - the caller must have allowance for ``sender``'s tokens of at least `amount`."
      },
      "transferOwnership(address)": {
        "details": "Transfers ownership of the contract to a new account (`newOwner`). Can only be called by the current owner."
      },
      "upgradeTo(address)": {
        "details": "Upgrade the implementation of the proxy to `newImplementation`. Calls {_authorizeUpgrade}. Emits an {Upgraded} event."
      },
      "upgradeToAndCall(address,bytes)": {
        "details": "Upgrade the implementation of the proxy to `newImplementation`, and subsequently execute the function call encoded in `data`. Calls {_authorizeUpgrade}. Emits an {Upgraded} event."
      }
    },
    "version": 1
  },
  "userdoc": {
    "kind": "user",
    "methods": {},
    "version": 1
  }
}